:020000040800F2
:1000000000000120E929000831190008371900080B
:100010003D190008431900084919000800000000B4
:100020000000000000000000000000004F19000860
:100030005B19000800000000671900087319000828
:10004000392A0008392A000881190008392A0008CD
:10005000392A0008392A0008392A0008392A0008F4
:10006000392A0008392A0008392A00089519000899
:10007000A9190008392A0008392A0008392A000875
:10008000392A0008392A0008392A0008392A0008C4
:1000900000000000392A0008392A0008392A00081F
:1000A000392A0008392A0008392A0008392A0008A4
:1000B000392A0008392A0008392A0008392A000894
:1000C000392A0008392A0008392A0008392A000884
:1000D000BD190008D1190008392A0008392A00087A
:1000E000392A0008E5190008F5190008392A00081E
:1000F000392A00080000000000000000392A00082A
:10010000392A0008392A0008091A0008392A000883
:10011000392A0008392A0008392A0008392A000833
:10012000392A0008392A0008392A0008392A000823
:08013000392A0008392A0008F1
:1001400010B5054C237833B9044B13B10448AFF311
:1001500000800123237010BDB401002000000000C6
:10016000E8E0010808B5034B1BB103490348AFF3AE
:10017000008008BD00000000B8010020E8E0010890
:10018000034613F8012B002AFBD1181A01387047D7
:1001900001F0FF01102A2BDB10F0070F08D010F838
:1001A000013B013A8B422DD010F0070F42B3F6D13C
:1001B000F0B441EA012141EA014122F007047FF055
:1001C00000070023F0E80256083C85EA010586EAAC
:1001D000010685FA47F5A3FA87F586FA47F6A5FAE8
:1001E00087F68EB9EED1F0BC01F0FF0102F00702F4
:1001F00032B110F8013B013A83EA010313B1F8D19F
:100200000020704701387047002D06BF354603387F
:10021000073815F0010F07D1013015F4807F02BFB8
:10022000013015F4C03F0130F0BC0138704700BF09
:1002300081F0004102E000BF83F0004330B54FEA97
:1002400041044FEA430594EA050F08BF90EA020F04
:100250001FBF54EA000C55EA020C7FEA645C7FEA97
:10026000655C00F0E2804FEA5454D4EB5555B8BFBA
:100270006D420CDD2C4480EA020281EA030382EA2B
:10028000000083EA010180EA020281EA0303362DBD
:1002900088BF30BD11F0004F4FEA01314FF4801C90
:1002A0004CEA113102D0404261EB410113F0004FA2
:1002B0004FEA03334CEA133302D0524263EB430359
:1002C00094EA050F00F0A780A4F10104D5F1200EF7
:1002D0000DDB02FA0EFC22FA05F2801841F1000152
:1002E00003FA0EF2801843FA05F359410EE0A5F126
:1002F00020050EF1200E012A03FA0EFC28BF4CF057
:10030000020C43FA05F3C01851EBE37101F000450C
:1003100007D54FF0000EDCF1000C7EEB00006EEB19
:100320000101B1F5801F1BD3B1F5001F0CD34908A3
:100330005FEA30004FEA3C0C04F101044FEA4452FA
:1003400012F5800F80F09A80BCF1004F08BF5FEA81
:10035000500C50F1000041EB045141EA050130BD61
:100360005FEA4C0C404141EB0101013C28BFB1F573
:10037000801FE9D291F0000F04BF01460020B1FABE
:1003800081F308BF2033A3F10B03B3F120020CDA91
:100390000C3208DD02F1140CC2F10C0201FA0CF06F
:1003A00021FA02F10CE002F11402D8BFC2F1200CD4
:1003B00001FA02F120FA0CFCDCBF41EA0C0190408A
:1003C000E41AA2BF01EB0451294330BD6FEA0404D3
:1003D0001F3C1CDA0C340EDC04F11404C4F12002BE
:1003E00020FA04F001FA02F340EA030021FA04F3D0
:1003F00045EA030130BDC4F10C04C4F1200220FA27
:1004000002F001FA04F340EA0300294630BD21FA64
:1004100004F0294630BD94F0000F83F4801306BF2A
:1004200081F480110134013D4EE77FEA645C18BF1E
:100430007FEA655C29D094EA050F08BF90EA020FB5
:1004400005D054EA000C04BF1946104630BD91EAAD
:10045000030F1EBF0021002030BD5FEA545C05D1B0
:100460004000494128BF41F0004130BD14F58004EF
:100470003CBF01F5801130BD01F0004545F0FE4163
:1004800041F470014FF0000030BD7FEA645C1ABF98
:10049000194610467FEA655C1CBF0B46024650EACF
:1004A000013406BF52EA033591EA030F41F40021FB
:1004B00030BD00BF90F0000F04BF0021704730B581
:1004C0004FF4806404F132044FF000054FF0000156
:1004D00050E700BF90F0000F04BF0021704730B517
:1004E0004FF4806404F1320410F0004548BF4042EC
:1004F0004FF000013EE700BF42004FEAE2014FEA41
:1005000031014FEA02701FBF12F07F4393F07F4F1B
:1005100081F06051704732F07F4208BF704793F01E
:100520007F4F04BF41F40021704730B54FF4607431
:1005300001F0004521F000411CE700BF50EA010234
:1005400008BF704730B54FF000050AE050EA0102DD
:1005500008BF704730B511F0004502D5404261EB4D
:1005600041014FF4806404F132045FEA915C3FF48E
:10057000D8AE4FF003025FEADC0C18BF03325FEA2B
:10058000DC0C18BF033202EBDC02C2F1200300FADC
:1005900003FC20FA02F001FA03FE40EA0E0021FA01
:1005A00002F11444BDE600BF4FF0FF3C06E000BF7F
:1005B0004FF0010C02E000BF4FF0010C4DF804CDEC
:1005C0004FEA410C7FEA6C5C4FEA430C18BF7FEAAC
:1005D0006C5C1BD001B050EA410C0CBF52EA430CDA
:1005E00091EA030F02BF90EA020F0020704710F15A
:1005F000000F91EA030F58BF994208BF90422CBFE9
:10060000D8176FEAE37040F0010070474FEA410CE1
:100610007FEA6C5C02D150EA013C07D14FEA430CFF
:100620007FEA6C5CD6D152EA033CD3D05DF8040B70
:10063000704700BF8446104662468C4619466346A2
:1006400000E000BF01B5FFF7B7FF002848BF10F179
:10065000000F01BD4DF808EDFFF7F4FF0CBF0120BE
:1006600000205DF808FB00BF4DF808EDFFF7EAFF3A
:1006700034BF012000205DF808FB00BF4DF808EDF5
:10068000FFF7E0FF94BF012000205DF808FB00BFEA
:100690004DF808EDFFF7CEFF94BF012000205DF874
:1006A00008FB00BF4DF808EDFFF7C4FF34BF012081
:1006B00000205DF808FB00BF4FEA410212F500126E
:1006C00015D211D56FF47873B3EB625212D94FEA99
:1006D000C12343F0004343EA505311F0004F23FA83
:1006E00002F018BF404270474FF00000704750EAD8
:1006F000013005D111F0004008BF6FF00040704795
:100700004FF00000704700BF80F0004002E000BFE3
:1007100081F0004142001FBF5FEA410392EA030FEC
:100720007FEA226C7FEA236C6AD04FEA1262D2EB36
:100730001363C1BFD218414048404140B8BF5B423B
:10074000192B88BF704710F0004F40F4000020F0D4
:100750007F4018BF404211F0004F41F4000121F0EA
:100760007F4118BF494292EA030F3FD0A2F1010234
:1007700041FA03FC10EB0C00C3F1200301FA03F172
:1007800000F0004302D5494260EB4000B0F5000F95
:1007900013D3B0F1807F06D340084FEA310102F154
:1007A0000102FE2A51D2B1F1004F40EBC25008BF06
:1007B00020F0010040EA03007047490040EB0000D0
:1007C000013A28BFB0F5000FEDD2B0FA80FCACF1D1
:1007D000080CB2EB0C0200FA0CF0AABF00EBC250FE
:1007E00052421843BCBFD0401843704792F0000FEC
:1007F00081F4000106BF80F400000132013BB5E73F
:100800004FEA41037FEA226C18BF7FEA236C21D0B4
:1008100092EA030F04D092F0000F08BF0846704719
:1008200090EA010F1CBF0020704712F07F4F04D1E7
:10083000400028BF40F00040704712F100723CBFFA
:1008400000F50000704700F0004343F0FE4040F424
:10085000000070477FEA226216BF08467FEA2363E2
:100860000146420206BF5FEA412390EA010F40F4CD
:10087000800070474FF0000304E000BF10F0004319
:1008800048BF40425FEA000C08BF704743F0964300
:1008900001464FF000001CE050EA010208BF70471B
:1008A0004FF000030AE000BF50EA010208BF7047A2
:1008B00011F0004302D5404261EB41015FEA010CB7
:1008C00002BF84460146002043F0B64308BFA3F1AF
:1008D0008053A3F50003BCFA8CF2083AA3EBC25391
:1008E00010DB01FA02FC634400FA02FCC2F12002B0
:1008F000BCF1004F20FA02F243EB020008BF20F0E7
:100900000100704702F1200201FA02FCC2F120024C
:1009100050EA4C0021FA02F243EB020008BF20EA41
:10092000DC7070474FF0FF0C1CEAD0521EBF1CEA6F
:10093000D15392EA0C0F93EA0C0F6FD01A4480EA5D
:10094000010C400218BF5FEA41211ED04FF0006346
:1009500043EA501043EA5111A0FB01310CF0004072
:10096000B1F5000F3EBF490041EAD3715B0040EA98
:10097000010062F17F02FD2A1DD8B3F1004F40EB68
:10098000C25008BF20F00100704790F0000F0CF03B
:10099000004C08BF49024CEA502040EA51207F3AFF
:1009A000C2BFD2F1FF0340EAC250704740F40000DA
:1009B0004FF00003013A5DDC12F1190FDCBF00F0CB
:1009C00000407047C2F10002410021FA02F1C2F179
:1009D000200200FA02FC5FEA310040F1000053EA15
:1009E0004C0308BF20EADC70704792F0000F00F063
:1009F000004C02BF400010F4000F013AF9D040EA69
:100A00000C0093F0000F01F0004C02BF490011F4FC
:100A1000000F013BF9D041EA0C018FE70CEAD153FA
:100A200092EA0C0F18BF93EA0C0F0AD030F0004C7A
:100A300018BF31F0004CD8D180EA010000F000402E
:100A4000704790F0000F17BF90F0004F084691F0EC
:100A5000000F91F0004F14D092EA0C0F01D1420226
:100A60000FD193EA0C0F03D14B0218BF084608D1EF
:100A700080EA010000F0004040F0FE4040F4000039
:100A8000704740F0FE4040F4400070474FF0FF0CCC
:100A90001CEAD0521EBF1CEAD15392EA0C0F93EA13
:100AA0000C0F69D0A2EB030280EA010C49024FEA65
:100AB000402037D04FF0805343EA111143EA10131E
:100AC0000CF000408B4238BF5B0042F17D024FF4D6
:100AD000000C8B4224BF5B1A40EA0C00B3EB510FB1
:100AE00024BFA3EB510340EA5C00B3EB910F24BF9A
:100AF000A3EB910340EA9C00B3EBD10F24BFA3EB1F
:100B0000D10340EADC001B0118BF5FEA1C1CE0D1E6
:100B1000FD2A3FF650AF8B4240EBC25008BF20F099
:100B2000010070470CF0004C4CEA50207F32C2BFED
:100B3000D2F1FF0340EAC250704740F400004FF08A
:100B40000003013A37E792F0000F00F0004C02BFBB
:100B5000400010F4000F013AF9D040EA0C0093F085
:100B6000000F01F0004C02BF490011F4000F013BDF
:100B7000F9D041EA0C0195E70CEAD15392EA0C0F47
:100B800008D142027FF47DAF93EA0C0F7FF470AF7F
:100B9000084676E793EA0C0F04D14B023FF44CAFC2
:100BA00008466EE730F0004C18BF31F0004CCAD157
:100BB00030F000427FF45CAF31F000437FF43CAF93
:100BC0005FE700BF4FEA4002B2F1FE4F0FD34FF094
:100BD0009E03B3EB12620DD94FEA002343F00043AA
:100BE00010F0004F23FA02F018BF404270474FF058
:100BF0000000704712F1610F01D1420205D110F0DF
:100C0000004008BF6FF0004070474FF00000704791
:100C100042000ED2B2F1FE4F0BD34FF09E03B3EB66
:100C2000126209D44FEA002343F0004323FA02F092
:100C300070474FF00000704712F1610F01D142027E
:100C400002D14FF0FF3070474FF00000704700BFF7
:100C500053B94AB9002908BF00281CBF4FF0FF3123
:100C60004FF0FF3000F074B9ADF1080C6DE904CE1F
:100C700000F006F8DDF804E0DDE9022304B0704777
:100C80002DE9F047089E0D4604468846002B4DD1BD
:100C90008A42944668D9B2FA82F252B101FA02F35A
:100CA000C2F1200120FA01F10CFA02FC41EA03082A
:100CB00094404FEA1C45210CB8FBF5FE1FFA8CF757
:100CC00005FB1E8341EA03430EFB07F199420BD952
:100CD0001CEB03030EF1FF3080F01E81994240F2BD
:100CE0001B81AEF1020E63445B1AA4B2B3FBF5F0B4
:100CF00005FB103344EA034400FB07F7A7420AD977
:100D00001CEB040400F1FF3380F00881A74240F29D
:100D1000058164440238E41B40EA0E4000211EB104
:100D2000D4400023C6E90043BDE8F0878B4208D9D0
:100D3000002E00F0EE800021C6E900050846BDE85F
:100D4000F087B3FA83F100294AD1AB4202D3824241
:100D500000F2F980841A65EB030301209846002E07
:100D6000E2D0C6E90048DFE702B9FFDEB2FA82F25C
:100D7000002A40F09180A1EB0C054FEA1C471FFAB6
:100D80008CFE0121B5FBF7F307FB1350250C45EA58
:100D900000450EFB03F0A84208D91CEB050503F142
:100DA000FF3802D2A84200F2CB8043462D1AA4B2EB
:100DB000B5FBF7F007FB105544EA05440EFB00FEB7
:100DC000A64508D91CEB040400F1FF3502D2A64564
:100DD00000F2BB802846A4EB0E0440EA03409EE7E5
:100DE000C1F120078B4022FA07FC4CEA030C20FAE1
:100DF00007F405FA01F31C43FD404FEA1C4900FAD1
:100E000001F3B5FBF9F8200C1FFA8CFE09FB18550D
:100E100040EA054508FB0EF0A84202FA01F20BD9A0
:100E20001CEB050508F1FF3A80F08880A84240F2EB
:100E30008580A8F1020865442D1AA4B2B5FBF9F02B
:100E400009FB105544EA054500FB0EFEAE4508D9E6
:100E50001CEB050500F1FF346CD2AE456AD90238AF
:100E6000654440EA0840A0FB0294A5EB0E05A542AC
:100E7000C846A64656D353D05EB1B3EB080265EB25
:100E80000E0505FA07F722FA01F3CD401F43C6E924
:100E900000750021BDE8F087C2F1200320FA03F1BC
:100EA0000CFA02FC25FA03F395400D434FEA1C4768
:100EB0001FFA8CFEB3FBF7F107FB11302B0C43EA52
:100EC000004301FB0EF0984204FA02F408D91CEB2F
:100ED000030301F1FF382FD298422DD90239634420
:100EE0001B1AADB2B3FBF7F007FB103345EA03451D
:100EF00000FB0EF3AB4208D91CEB050500F1FF38EF
:100F000016D2AB4214D902386544ED1A40EA0141C9
:100F100038E73146304607E78646E5E61846FAE602
:100F20004B45A9D2B9EB020864EB0C0E0138A3E7DC
:100F30004046EAE7204694E74146D1E7D0467BE7C2
:100F4000023B654432E7084609E76444023842E759
:100F5000704700BF80B485B000AF78604FF0B043F9
:100F60001A6E4FF0B0417B6813430B664FF0B043ED
:100F70001A6E7B681340FB60FB6800BF1437BD46E8
:100F800080BC704780B483B000AF78604FF0B0434E
:100F90001A6E7B68DB434FF0B04113400B6600BF15
:100FA0000C37BD4680BC704780B500AF234B244A48
:100FB0001A60224B4FF000425A60204B00229A6088
:100FC0001E4B0022DA601D4B00221A611B4B0422CB
:100FD0005A611A4B00221A76184B00225A76174B88
:100FE00000229A76154B0122DA61144B002283F815
:100FF0002020124B00225A62104B00229A620F4BA3
:10100000002283F82C200D4B4FF480521A630B4BB7
:1010100007225A63094B07229A63084B002283F880
:101020003C20064B0022DA64044801F0A9FF034685
:10103000002B01D000F0BAFB00BF80BDD001002022
:101040000024014080B582B000AF78607B681B68E7
:10105000054A934203D14FF40070FFF77BFF00BFB6
:101060000837BD4680BD00BF0024014080B582B076
:1010700000AF78607B681B68054A934203D14FF448
:101080000070FFF77FFF00BF0837BD4680BD00BF7F
:101090000024014080B400AF034B044A1A6000BF33
:1010A000BD4680BC704700BFD00100200024014035
:1010B00080B582B000AF0023FB8000233B60134863
:1010C00000F02AF838603B68002B02D10023FB8037
:1010D00016E00F4B1B884FF6FF7293420BD00C4B60
:1010E0001B881A4640F6E44303FB02F23B68B2FB5E
:1010F000F3F3FB8004E0074A3B68B2FBF3F3FB80A9
:10110000FB8818460837BD4680BD00BF002000B4EC
:10111000AA75FF1FD8084C0080B586B000AF786074
:1011200000237B6107F1080300221A605A609A606D
:10113000FFF73AFF1A4802F052FD0346002B01D098
:1011400000F034FB7B68BB600023FB6000233B6145
:1011500007F108031946124802F05EFA0346002B15
:1011600001D000F023FB0E4802F03AF90346002BB1
:1011700001D000F01BFB4FF0FF31094802F0A8F945
:10118000074802F073F9064802F039FA786104481A
:1011900002F0AAF87B6918461837BD4680BD00BF2B
:1011A000D001002080B485B000AF78604FF0B0432C
:1011B0009A6C4FF0B0417B6813438B644FF0B0439F
:1011C0009A6C7B681340FB60FB6800BF1437BD4618
:1011D00080BC704780B500AF0420FFF7E3FF01201B
:1011E000FFF7E0FF002202210B2002F09EFE0B2001
:1011F00002F0B5FE002200210C2002F096FE0C2029
:1012000002F0ADFE00BF80BD80B400AF064B1B698D
:1012100003F40023B3F5002F01D1012300E00023E4
:101220001846BD4680BC70470040005880B58CB061
:1012300000AFF860B9607A603B600023FB62FB6836
:1012400003F17842564B1B689902564B0B40B2FB98
:10125000F3F101FB03F3D31ADB0ABB61FA687B6885
:10126000134403F17843013B4D4A126891024D4A01
:101270000A40B3FBF2F101FB02F29B1ADB0A7B612D
:101280007B68BB62FB687B62BB683B62BB68002B10
:1012900009D07B6803F00703002B04D1FB6803F03F
:1012A0000703002B02D06FF0040374E03E4B5B6930
:1012B000002B02DA6FF003036DE0BA697B699A4292
:1012C00005D0FB68C3F30A03C3F50063BB62BB69C7
:1012D000FB615BE07B6AB96A184600F0F8F80346E8
:1012E000002B37D03B68002B02D16FF0040352E093
:1012F000FB6903F58033DB024FF40062194638685E
:101300001BF012F87B6AC3F30A033A681344396A84
:10131000BA6A92B218461BF007F800220121F86958
:1013200000F065F80346002B03D06FF00103FB6269
:1013300030E0FB6903F58033DB024FF4006239686B
:10134000184600F08AF80346002B10D06FF0020315
:10135000FB621FE03B6ABA6A1946786A00F07DF8C2
:101360000346002B03D06FF00203FB6212E07A6A9F
:10137000BB6A13447B623A6ABB6A13443B627A6875
:10138000BB6AD31ABB62FB690133FB61FA697B69F3
:101390009A429FD9FB6A18463037BD4680BD00BFD0
:1013A000E075FF1F00FCFF030040005880B584B0CB
:1013B00000AFF860C7E900230BE000BFFFF724FF90
:1013C0000346002BFAD1D7E90023F968012003F086
:1013D000CDF9FB68D3E90023D7E90001994208BFA2
:1013E0009042EAD1002318461037BD4680BD80B533
:1013F0008AB000AFF8600B467A607B810223BB6144
:10140000FB68FB617B893B627B68002B08D007F19E
:101410001803184603F048FB034687F827300AE014
:1014200007F1140207F118031146184603F0E4FA15
:10143000034687F8273097F82730002B08D097F815
:101440002730022B01D1012303E06FF0010300E0FC
:10145000002318462837BD4680BD80B58AB000AF4E
:10146000F860B9607A60BB687B6200233B6200234E
:10147000FB6120E007F110030822796A18461AF090
:1014800053FFD7E90423B3F1FF3F08BFB2F1FF3F99
:1014900005D0D7E90423F868FFF788FF3862FB68B6
:1014A0000833FB607B6A08337B623B6A002B08D100
:1014B000FB690133FB617B68DB08FA699A42D9D387
:1014C00000E000BF3B6A18462837BD4680BD80B4A7
:1014D00085B000AF786039600AE07B685A1C7A609A
:1014E0001B78FF2B01D0012339E03B68013B3B60B7
:1014F0007B6803F00703002BEFD17B68FB600023C0
:10150000BB6010E0FB6803F10802FA60D3E9002336
:10151000B3F1FF3F08BFB2F1FF3F01D001231EE04E
:10152000BB680133BB603B68DB08BA689A42E9D309
:10153000BB68DB003A68D31A3B60FB687B600AE05B
:101540007B685A1C7A601B78FF2B01D0012306E0D0
:101550003B68013B3B603B68002BF1D10023184600
:101560001437BD4680BC704780B485B000AF78604A
:101570004FF0B043DA6C4FF0B0417B681343CB645B
:101580004FF0B043DA6C7B681340FB60FB6800BF30
:101590001437BD4680BC704780B586B000AF3B1D98
:1015A00000221A605A609A60DA601A610420FFF71C
:1015B000DBFF0220FFF7D8FF0120FFF7D5FF002255
:1015C0004FF48361214803F061FD012220211F486F
:1015D00003F05CFD002221214FF0904003F056FD06
:1015E0004FF487637B600123BB600023FB60032310
:1015F0003B613B1D1946154803F01AFB21237B6014
:101600000123BB600023FB6003233B613B1D1946A4
:101610004FF0904003F00CFB4FF400537B604FF40D
:101620000413BB600123FB603B1D1946074803F010
:10163000FFFA00220021292002F077FC292002F085
:101640008EFC00BF1837BD4680BD00BF00040048B7
:1016500080B483B000AF78604FF0B043D3F89030DF
:1016600023F018024FF0B0417B681343C1F890306B
:1016700000BF0C37BD4680BC7047000080B586B007
:1016800002AF01F0ABFA00F037F8FFF785FF08F082
:101690009DFF0023BB8100F027FF0023FB7312E0B6
:1016A000C82000F097FB07F10C03104918461CF006
:1016B0002DF807F10C01642302220D4803F077FD99
:1016C000FB7B0133FB73FB7B052BE9D93946642394
:1016D0000C22074803F0F7FD3B460093054B01221F
:1016E000002102201BF068FDD7E700BF00E10108E0
:1016F0008802002004E1010880B59AB000AF07F12C
:1017000020034822002118461BF0F8FF07F10803C8
:1017100000221A605A609A60DA601A615A6104F015
:1017200093FA0020FFF794FF1F4B1B6823F4C0635C
:101730001D4A43F4007313601B4B1B6803F4C06322
:101740007B607B6824233B628123FB6201233B6433
:1017500000237B64B023BB640023FB6407F12003F8
:10176000184604F01BFD0346002B01D000F01EF8C4
:101770004F23BB600023FB6000233B6100237B61A0
:101780000023BB610023FB6107F108030221184617
:1017900005F0A0F80346002B01D000F007F800BFC9
:1017A0006837BD4680BD00BF0004005880B400AF5C
:1017B00072B600BFFEE780B400AF4FF0B043D3F87D
:1017C00090304FF0B04243F40043C2F8903000BF75
:1017D000BD4680BC704780B485B000AF78604FF0E4
:1017E000B0439A6D4FF0B0417B6813438B654FF067
:1017F000B0439A6D7B681340FB60FB6800BF1437F1
:10180000BD4680BC7047000080B58CB000AF3B1D6A
:101810002C22002118461BF071FF224B224A1A602D
:10182000204B1F229A601F4B00221A611D4B002281
:101830005A611C4B00229A611A4B4FF08042DA61C8
:10184000184B00221A62174B4FF480725A621548E7
:1018500005F0FCFC0346002B01D0FFF7A7FF114861
:1018600005F0EAFF0346002B01D0FFF79FFF00239E
:101870003B620023BB600023BB614FF00053FB6160
:101880004FF48073FB623B1D00221946054805F0AA
:1018900057FD0346002B01D0FFF788FF00BF30370C
:1018A000BD4680BD340200200028004080B590B0C5
:1018B00000AF786007F108033822002118461BF0BA
:1018C0001DFF7B681B68164A934225D14FF4803375
:1018D000BB604FF48073FB6307F10803184605F003
:1018E0009BFB0346002B01D0FFF760FFFFF763FF70
:1018F0004FF48060FFF76FFF00220021022002F00A
:1019000014FB022002F02BFB002200212A2002F00F
:101910000CFB2A2002F023FB00BF4037BD4680BDF0
:101920000028004080B400AF00BFBD4680BC7047B7
:1019300080B400AFFEE780B400AFFEE780B400AF34
:10194000FEE780B400AFFEE780B400AFFEE780B4EE
:1019500000AF00BFBD4680BC704780B400AF00BF81
:10196000BD4680BC704780B400AF00BFBD4680BCA0
:10197000704780B400AF00BFBD4680BC7047000018
:1019800080B500AF024805F093FF00BF80BD00BFE7
:101990003402002080B500AF024802F077FD00BF9E
:1019A00080BD00BF6003002080B500AF024802F098
:1019B0006DFD00BF80BD00BFC003002080B500AF3B
:1019C000024803F03FFD00BF80BD00BF8802002039
:1019D00080B500AF024806F0CBFD00BF80BD00BF60
:1019E000D002002080B500AF4FF4005003F066FB3A
:1019F00000BF80BD80B500AF024805F009FE00BF02
:101A000080BD00BF3402002080B500AF024806F060
:101A1000B7FA00BF80BD00BF6C02002080B485B063
:101A200000AF78604FF0B0435A6E4FF0B0417B6822
:101A300013434B664FF0B0435A6E7B681340FB6014
:101A4000FB6800BF1437BD4680BC704780B500AF4F
:101A5000064B08221A60054806F016F80346002BCC
:101A600001D0FFF7A3FE00BF80BD00BF6C020020C5
:101A700080B582B000AF78600120FFF7CFFF002271
:101A80000021322002F051FA322002F068FA00BF41
:101A90000837BD4680BD80B483B000AF78604FF09A
:101AA000B0439B6823F400424FF0B0417B6813437E
:101AB0008B6000BF0C37BD4680BC704780B400AF60
:101AC000024B1B681846BD4680BC70478075FF1FDF
:101AD00080B400AF034B1B68DBB21846BD4680BC28
:101AE000704700BF8475FF1F80B400AF034B1B68B5
:101AF0001B0A1846BD4680BC704700BF8475FF1F97
:101B000080B500AF0020FFF7C6FF1BF097F80E4B23
:101B100001221A7000F082F91BF020FB0B481BF029
:101B2000CBFB0B4B4FF400421A6102201BF0D2FB9F
:101B3000FFF7B0FA00F0F8F91AF086FB0121012056
:101B40001AF0C2FB00BF80BD780200200D1D000806
:101B50000040005880B582B000AF0023FB71FFF752
:101B6000A7FA0346BB80BB8840F6B832934202D93D
:101B7000FE23FB7114E0BB88B3F5E16F02D20023B2
:101B8000FB710DE0BB88A3F5E1631A461346DB0148
:101B90009B1A5B001A46054BA3FB0223DB09FB7172
:101BA000FB7918460837BD4680BD00BFB5814E1B86
:101BB00080B588B000AF0023FB833B1D184600F0C2
:101BC00089F9BB681846FEF7FDFF0346FB83B7F9AA
:101BD0001E3018462037BD4680BD90B587B000AF97
:101BE000786000237B61FFF769FF78617B69B3F15F
:101BF000FF3F38D101F012F8044601F023F8034604
:101C000023443B6101F014F8F8603B691A0E7B68CD
:101C10000733D2B21A703B691A0C7B680633D2B212
:101C20001A703B691A0A7B680533D2B21A707B6856
:101C300004333A69D2B21A70FB681A0E7B68033318
:101C4000D2B21A70FB681A0C7B680233D2B21A70D7
:101C5000FB681A0A7B680133D2B21A70FB68DAB2E9
:101C60007B681A7031E07B6807337A69D2B21A70E8
:101C70007B691A0A7B680633D2B21A707B691A0C28
:101C80007B680533D2B21A707B691A0E7B68043305
:101C9000D2B21A70FFF71CFF78617B6803337A6950
:101CA000D2B21A70FFF720FF78617B6802337A693D
:101CB000D2B21A707B691A0A7B680133D2B21A70E9
:101CC0007B691B0CDAB27B681A7000BF1C37BD46FB
:101CD00090BD90B583B000AF00237B60FFF7EEFEB0
:101CE00078607B68B3F1FF3F0BD100F097FF0446AB
:101CF00000F09EFF03465C4000F0A4FF03466340F3
:101D00007B607B6818460C37BD4690BD80B586B0B9
:101D100002AF7860396007F1080318461AF0DEFB5D
:101D2000BB68B7F90C200092074A1021786800F0D0
:101D30001DF87868FEF724FA03469AB23B681A80C9
:101D400000BF1037BD4680BD0CE1010880B500AF73
:101D5000012102201AF088FA00BF80BD80B500AFD3
:101D6000002102201AF080FA00BF80BD0CB480B5BB
:101D700084B000AF7860396007F11C03FB603968FC
:101D8000FB68BA6978681AF07BFD00BF1037BD4662
:101D9000BDE8804002B0704780B483B000AF786087
:101DA000002318460C37BD4680BC704780B582B012
:101DB00000AF00237B60064B1B78002B02D000F0A5
:101DC000B7F978607B6818460837BD4680BD00BF0C
:101DD0007802002080B582B000AF78607B6818463A
:101DE00000F02DFA00BF0837BD4680BD80B485B035
:101DF00000AF78604FF0B043DA6C4FF0B0417B68D1
:101E00001343CB644FF0B043DA6C7B681340FB6044
:101E1000FB6800BF1437BD4680BC704780B586B0F4
:101E200000AF00F019FF00F01DFF00F021FF3B1D87
:101E300000221A605A609A60DA601A610123BB605E
:101E40000023FB6003233B610120FFF7CFFF02204B
:101E5000FFF7CCFF0220FFF7C9FF0220FFF7C6FF04
:101E600001237B603B1D19464FF0904002F0E0FEDD
:101E70004FF480637B603B1D1946154802F0D8FE85
:101E800008237B603B1D1946114802F0D1FE102348
:101E90007B603B1D19460E4802F0CAFE002201215C
:101EA0004FF0904003F0F2F800224FF480610848B0
:101EB00003F0ECF800220821054803F0E7F80022BF
:101EC0001021034803F0E2F800BF1837BD4680BD7B
:101ED0000004004880B487B000AF78600D4B7B6190
:101EE0000D4B3B610D4BFB607B687A699A607B68A8
:101EF0003A695A607B68FA681A607B68084ADA6057
:101F00007B68084A1A61002318461C37BD4680BC0E
:101F1000704700BF000048420000904100007A4432
:101F20000D093E00AB03050080B483B000AF002371
:101F30007B60002318460C37BD4680BC704700000C
:101F400080B586B000AF7860144A154BD31A7B6118
:101F50007B693B61134B1B68002B02D1114B124A6A
:101F60001A60104B1A687B6813443A699A4207D288
:101F70001BF09AFB03460C221A604FF0FF3309E076
:101F8000084B1B68FB60074B1A687B681344054AC3
:101F90001360FB6818461837BD4680BD000001205D
:101FA000000400007C0200209822002080B400AFD2
:101FB00000BFBD4680BC704780B483B000AF78607E
:101FC0007B689B6818460C37BD4680BC7047000094
:101FD00080B582B000AF0023FB71144B1B7883F0F7
:101FE0000103DBB2002B1BD0114B4FF0FF321A6301
:101FF000FFF70AFC00F056F84FF480710C4805F02A
:10200000ABFA0B4B4FF0FF321A63094805F0E2FBC5
:10201000002000F0D3F900F05FF8044B01221A70A1
:10202000FB7918460837BD4680BD00BF80020020FE
:102030003402002080B58EB000AF7860002387F8AE
:10204000373007F108032C22002118461BF056FBFD
:1020500000F028F8114B1B687A6813447B6000235A
:102060007B627B68DB43FB600023FB614FF0005326
:102070003B624FF480733B6307F10803012219466A
:10208000074805F05DF90346002B01D0FFF78EFBF2
:1020900097F8373018463837BD4680BD8402002097
:1020A0003402002080B582B000AF0023FB71084BE2
:1020B0000122DA654FF48071064805F04DFA054BB0
:1020C0004FF0FF321A63FB7918460837BD4680BDD2
:1020D000002800403402002080B500AF00F08EF9E7
:1020E0000346034A1360024B1B68184680BD00BFBD
:1020F0008402002080B400AF024B1B681846BD4626
:1021000080BC70478402002080B582B000AF0023FD
:102110007B6000F073F90246044B1B68D31A7B60A6
:102120007B6818460837BD4680BD00BF840200208A
:1021300080B582B000AF00237B60064B1B78002B7C
:1021400002D000F05BF978607B6818460837BD461E
:1021500080BD00BF8002002080B483B000AF0023A8
:102160007B6003237B607B6818460C37BD4680BCD0
:102170007047B0B584B000AF78600021F96079682D
:1021800000200A460346950D94024FF47A724FF0F0
:10219000000320462946FEF75BFD02460B46134628
:1021A000FB60FB6818461037BD46B0BD2DE9B00F87
:1021B00085B000AF78600021F960796800200C4696
:1021C0000546204629464FF0000A4FF0000B4FEA23
:1021D000411B4BEAD06B4FEA401A50465946021B4E
:1021E00061EB05034FF000004FF00001990041EA58
:1021F0009271900002460B4612EB040843EB05096E
:102200004FF000024FF000034FEAC90343EA58734E
:102210004FEAC80290469946404649464FF00002B0
:102220004FF00003820A42EA81528B0A1346FB6098
:10223000FB6818461437BD46BDE8B00F704780B53F
:1022400084B000AF78607868FFF793FFF86000F023
:10225000D5F8B86000E000BF00F0D0F80246BB68D7
:10226000D31AFA689A42F6D800BF00BF1037BD46AD
:1022700080BD80B582B000AF78601AF02DFE00BF3F
:102280000837BD4680BD80B584B000AF786000F0EF
:10229000A5F8F860FB680133184600F08FF800BF1E
:1022A0001037BD4680BD2DE9B04F8CB000AF7861CE
:1022B0000023FB6200F0A2F8B86200F08FF87862A9
:1022C0007B6A0022BB60FA604FF000024FF000030F
:1022D000B9680B000022B96A00200C46054612EBD3
:1022E000040843EB0509C7E90689D7E906014FF061
:1022F00000024FF00003820A42EA81528B0A134621
:10230000FB62BB6900223B607A603B68C3F3090A49
:102310004FF0000BC7E906ABBB691846FFF746FF55
:1023200003469AB27B691A80FB6A18463037BD466D
:10233000BDE8B08F80B582B000AF78607A680021C8
:10234000034805F0D9FA00BF0837BD4680BD00BF7D
:102350003402002080B582B000AF78607A68012135
:10236000034805F0C9FA00BF0837BD4680BD00BF6D
:102370003402002080B582B000AF00237B600021D2
:10238000044805F0D1FA78607B6818460837BD46E6
:1023900080BD00BF3402002080B582B000AF0023B2
:1023A0007B600121044805F0BFFA78607B6818461D
:1023B0000837BD4680BD00BF3402002080B582B022
:1023C00000AF78607A680221034805F095FA00BFF3
:1023D0000837BD4680BD00BF3402002080B582B002
:1023E00000AF0221044805F09FFA78607B68184628
:1023F0000837BD4680BD00BF3402002080B582B0E2
:1024000000AF0B48FFF7D8FD786003E00848FFF7FE
:10241000D3FD78600648FFF7CFFD02467B68934204
:10242000F4D17B68DB4318460837BD4680BD00BF4A
:102430000028004080B485B000AF78604FF0B04312
:10244000DA6C4FF0B0417B681343CB644FF0B0437C
:10245000DA6C7B681340FB60FB6800BF1437BD4635
:1024600080BC704780B485B000AF78604FF0B04357
:102470009A6D4FF0B0417B6813438B654FF0B043CA
:102480009A6D7B681340FB60FB6800BF1437BD4644
:1024900080BC704780B483B000AF78604FF0B04329
:1024A0009A6D7B68DB434FF0B04113408B6500BFF2
:1024B0000C37BD4680BC704780B485B000AF7860F3
:1024C0004FF0B0431A6E4FF0B0417B6813430B6678
:1024D0004FF0B0431A6E7B681340FB60FB6800BF8F
:1024E0001437BD4680BC704780B500AF114B124A0F
:1024F0001A60104B4FF461425A600E4B00229A60F2
:102500000C4B0022DA600B4B0C221A61094B0A2299
:102510001A75084B0022DA82064B00229A610548A0
:1025200002F0F6FD0346002B01D0FFF73FF900BF94
:1025300080BD00BF880200200038014080B500AF98
:10254000224B234A1A60214B4FF4E1325A601F4B51
:1025500000229A601D4B0022DA601C4B00221A6197
:102560001A4B0C225A61194B00229A61174B002218
:10257000DA61164B00221A62144B00225A62134B86
:1025800000229A62114805F0BAFE0346002B01D0E2
:10259000FFF70CF900210D4807F02EFF0346002B32
:1025A00001D0FFF703F90021084807F063FF034655
:1025B000002B01D0FFF7FAF8044807F0E5FE0346C8
:1025C000002B01D0FFF7F2F800BF80BDD002002041
:1025D0000044004080B596B000AF786007F1440336
:1025E00000221A605A609A60DA601A6107F10C03DF
:1025F0003822002118461BF081F87B681B682F4A9F
:10260000934256D10123FB604FF440333B6107F105
:102610000C03184604F000FD0346002B01D0FFF721
:10262000C5F84FF48040FFF747FF0220FFF702FF95
:10263000C0237B640223BB640023FB6403233B654C
:1026400007237B6507F1440319461D4802F0F0FAA1
:102650001C4B1D4A1A601B4B12225A60194B102248
:102660009A60184B0022DA60164B80221A61154BD3
:1026700000225A61134B00229A61124B0022DA6148
:10268000104B00221A620F4801F086FC0346002B13
:1026900001D0FFF78BF87B680A4A1A63094A7B6806
:1026A000936200220221242001F03FFC242001F04B
:1026B00056FC00BF5837BD4680BD00BF0038014002
:1026C00000040048600300200800024080B596B076
:1026D00000AF786007F1440300221A605A609A60E4
:1026E000DA601A6107F10C033822002118461BF04A
:1026F00005F87B681B682F4A934257D10223FB6081
:102700004FF440237B6107F10C03184604F084FC6E
:102710000346002B01D0FFF749F84FF40030FFF7D4
:10272000A1FE0120FFF786FE0C237B640223BB641D
:102730000023FB6400233B6507237B6507F144030B
:1027400019464FF0904002F073FA1B4B1B4A1A6077
:10275000194B14225A60184B10229A60164B002213
:10276000DA60154B80221A61134B00225A61124B1A
:1027700000229A61104B0022DA610F4B00221A628C
:102780000D4801F009FC0346002B01D0FFF70EF8BD
:102790007B68094A9A67084A7B6893620022002195
:1027A000252001F0C2FB252001F0D9FB00BF5837DE
:1027B000BD4680BD00440040C00300201C00024014
:1027C00080B582B000AF78607B681B680B4A93428B
:1027D00010D14FF40030FFF75DFE0C214FF0904018
:1027E00002F086FB7B689B6F184601F07DFC25207C
:1027F00001F0C3FB00BF0837BD4680BD0044004068
:1028000080B483B000AF78604FF0B0439A6B4FF064
:10281000B0417B6813438B6300BF0C37BD4680BC5F
:10282000704780B483B000AF78604FF0B0439A6BCC
:102830007B68DB434FF0B04113408B6300BF0C3724
:10284000BD4680BC7047000080B483B000AF7860A4
:10285000064BD3F8802005497B681343C1F88030CC
:1028600000BF0C37BD4680BC704700BF0008005851
:1028700080B582B000AF7860074A7B681360FEF7CE
:10288000A9FCFFF75BFE4FF00060FFF7DDFF0023C0
:1028900018460837BD4680BD2404002080B500AF2F
:1028A0004FF40030FFF7ACFF4FF40030FFF7B9FFF3
:1028B0000448FFF785FF0F2001F05FFB0023184657
:1028C00080BD00BFD002002080B582B000AF78602C
:1028D0000B467B807B881A467968044805F0B6FD74
:1028E000002318460837BD4680BD00BFD002002037
:1028F00080B584B000AF7860194A7B6813604FF4EC
:102900000013BB6007F1080393E80600154807F0C1
:10291000AEFC00BF134B1B68DB6903F48033B3F5D7
:10292000803FF7D000BF0F4B1B68DB6903F48003C7
:10293000B3F5800FF7D10B4B1B689A68094B1B68E6
:1029400042F480029A60074807F0ECFC0122064935
:10295000044805F025FD002318461037BD4680BD0C
:1029600028040020D00200202004002080B582B07E
:1029700000AF78607B681B68054A934203D1054B22
:102980001B680020984700BF0837BD4680BD00BFC8
:10299000004400402404002080B582B000AF78607D
:1029A0007B681B680D4A934213D10D4B1B68002BAB
:1029B0000AD07B68D3F88C30002B05D1084B1B68FC
:1029C000002201210748984701220649786805F04E
:1029D000E7FC00BF0837BD4680BD00BF0044004093
:1029E00028040020200400200D488546FFF7DEFA69
:1029F0000C480D490D4A002302E0D458C45004335A
:102A0000C4188C42F9D30A4A0A4C002301E013602F
:102A10000432A242FBD31AF04DFEFEF72FFEFEE772
:102A20000000012000000020B40100207CF101081A
:102A3000B401002094220020FEE780B586B000AFEC
:102A40003B1D00221A605A609A60DA601A611023F6
:102A50007B600123BB600023FB6003233B613B1DC4
:102A600019464FF0904002F0E3F820237B603B1DB5
:102A700019464FF0904002F0DBF8002220214FF081
:102A8000904002F003FB002210214FF0904002F032
:102A9000FDFA002318461837BD4680BD80B582B0C8
:102AA00000AF0346FB71FB79032B3FD801A252F81C
:102AB00023F000BFC52A0008DF2A0008F92A000811
:102AC000132B0008002210214FF0904002F0DEFA94
:102AD000002220214FF0904002F0D8FA27E0012296
:102AE00010214FF0904002F0D1FA002220214FF047
:102AF000904002F0CBFA1AE0012210214FF09040F2
:102B000002F0C4FA012220214FF0904002F0BEFAF8
:102B10000DE0002210214FF0904002F0B7FA0122A0
:102B200020214FF0904002F0B1FA00E000BF0023F6
:102B300018460837BD4680BD80B400AF0223184652
:102B4000BD4680BC704780B400AF01231846BD4627
:102B500080BC704780B400AF01231846BD4680BCDE
:102B6000704780B485B000AF0346FB71FB79002B42
:102B700002D10F23FB6001E01623FB60FB681846BF
:102B80001437BD4680BC704780B400AF044B5B680F
:102B9000034A23F00103536000BFBD4680BC704769
:102BA000002004E080B400AF044B5B68034A23F0CC
:102BB0000203536000BFBD4680BC7047002004E0A4
:102BC00080B400AF044B5B68034A23F004035360F6
:102BD00000BFBD4680BC7047002004E080B582B0D5
:102BE00000AF0023FB71032001F094F904F036F8E4
:102BF0000346094A13600F20FFF7CEF80346002B67
:102C000002D00123FB7101E0FEF78CFEFB79184630
:102C10000837BD4680BD00BF0000002080B400AF73
:102C2000024B1B681846BD4680BC70479075FF1F5D
:102C300080B400AF024B1B681846BD4680BC70478D
:102C40009475FF1F80B400AF024B1B681846BD4649
:102C500080BC70479875FF1F80B500AFFFF794FFE9
:102C600000BF80BD80B500AFFFF79CFF00BF80BDF7
:102C700080B500AFFFF7A4FF00BF80BD80B483B074
:102C800000AF786039607B681B6823F0E0723B68B6
:102C90001A437B681A6000BF0C37BD4680BC704782
:102CA00080B483B000AF78607B681B6803F0E0738A
:102CB00018460C37BD4680BC704780B485B000AF65
:102CC000F860B9607A60FB685A69BB6803F0040376
:102CD000072101FA03F3DB431A40BB6803F0040346
:102CE000796801FA03F31A43FB685A6100BF14378D
:102CF000BD4680BC704780B483B000AF7860396057
:102D00007B685A693B6803F00403072101FA03F367
:102D10001A403B6803F0040322FA03F318460C3709
:102D2000BD4680BC704780B483B000AF78607B68DC
:102D3000DB6803F44063002B01D1012300E0002392
:102D400018460C37BD4680BC704780B485B000AFD4
:102D5000F860B9607A60FB689A6ABB6803F01F0389
:102D60000F2101FA03F3DB431A407B689B0E03F04B
:102D70000F01BB6803F01F0301FA03F31A43FB685A
:102D80009A6200BF1437BD4680BC704780B483B0E0
:102D900000AF786039607B689A6A3B68C3F31103BF
:102DA0001A437B689A6200BF0C37BD4680BC7047EF
:102DB00080B483B000AF786039607B689A6A3B6802
:102DC000C3F31103DB431A407B689A6200BF0C37E0
:102DD000BD4680BC704780B485B000AFF860B96074
:102DE0007A60FB685A69BB681B02DB431A40BB6808
:102DF00019027B680B4023F07C4323F0FF031A4346
:102E0000FB685A6100BF1437BD4680BC704780B470
:102E100083B000AF78607B689B6823F0104323F099
:102E2000170343F080527B689A6000BF0C37BD46A1
:102E300080BC704780B483B000AF78607B689B68CB
:102E400023F0104323F017037A68936000BF0C3718
:102E5000BD4680BC704780B483B000AF78607B68AB
:102E60009B6803F08053B3F1805F01D1012300E040
:102E7000002318460C37BD4680BC704780B483B031
:102E800000AF78607B689B6823F0004323F0170352
:102E900043F001027B689A6000BF0C37BD4680BCDE
:102EA000704780B483B000AF78607B689B6823F084
:102EB000004323F0170343F002027B689A6000BFCF
:102EC0000C37BD4680BC704780B483B000AF7860DB
:102ED0007B689B6803F00103012B01D1012300E013
:102EE000002318460C37BD4680BC704780B483B0C1
:102EF00000AF78607B689B6803F00203022B01D16E
:102F0000012300E0002318460C37BD4680BC704703
:102F100080B483B000AF78607B689B6823F0004387
:102F200023F0170343F004027B689A6000BF0C375C
:102F3000BD4680BC704780B483B000AF78607B68CA
:102F40009B6823F0004323F0170343F010027B68D3
:102F50009A6000BF0C37BD4680BC704780B483B018
:102F600000AF78607B689B6803F00403042B01D1F9
:102F7000012300E0002318460C37BD4680BC704793
:102F800080B588B000AF78600023FB770023BB6179
:102F900000237B610023BB607B68002B01D10123F0
:102FA0009EE17B681B69002B7B689B6D002B09D120
:102FB0007868FEF747F87B680022DA657B680022B4
:102FC00083F854207B681B681846FFF744FF0346CC
:102FD000002B15D17B681B681846FFF718FF994B2B
:102FE0001B689B09984AA2FB03239B0901335B00E2
:102FF000BB6002E0BB68013BBB60BB68002BF9D142
:103000007B681B681846FFF726FF0346002B0DD18F
:103010007B689B6D43F010027B689A657B68DB6D73
:1030200043F001027B68DA650123FB777B681B684C
:103030001846FFF793FFF8607B689B6D03F0100361
:10304000002B40F04481FB68002B40F040817B68FE
:103050009B6D23F4817343F002027B689A657B6861
:103060001B681846FFF730FF0346002B40F0A7808F
:103070007B689A687B681B7E9B031A437B685B7E38
:10308000DB031A437B689B7E5B0313437A68126BF6
:10309000002A02D04FF4805200E000221A437B68DD
:1030A000DB681A437B681B69002B04DA7B681B69A9
:1030B00023F0004301E04FF400131A437B6893F8B8
:1030C0002C305B001343BA691343BB617B6893F8F0
:1030D0002030012B14D17B689B7E002B04D1BB696F
:1030E00043F48033BB610BE07B689B6D43F02002AF
:1030F0007B689A657B68DB6D43F001027B68DA656B
:103100007B685B6A002B09D07B685B6A03F4E07222
:103110007B689B6A1343BA691343BB617B681B6876
:10312000DB6823F4FE3323F4FF737A681268B9690D
:103130000B43D3607B685B6803F040427B68DB6CC9
:1031400013437A6913437B617B6893F83C30012B0E
:1031500011D17B685B6803F040427B681B6C1A43AB
:103160007B685B6C1A437B689B6C1A437B691343D7
:1031700043F001037B617B681B681A69334B134082
:103180007A68126879690B4313617B685B68B3F1F5
:10319000404F14D07B685B68B3F1804F0FD07B68E1
:1031A0005B68B3F1004F0AD0294B1B6823F47012FF
:1031B0007B685B6803F47013254913430B607B68DD
:1031C00018687B685B6B1A460021FFF776FD7B6809
:1031D00018687B689B6B1A461E49FFF76EFD7B687B
:1031E0001B69002B08D17B681B689A6A7B681B6887
:1031F00062F00F029A6242E07B681B69B3F5001F20
:103200003DD100233B610CE07B681A6E3B699B005B
:1032100022FA03F303F00F030F2B06D03B690133AF
:103220003B613B69072BEFD900E000BF3B69012BF5
:1032300012D17B681B689A6A7B681B6862F00F0278
:103240009A621CE000000020632D3E0502FCFF1F77
:103250000827014004FFFF037B681B689B6A7B68AB
:10326000DB69013B9B0003F01C036FF00F0202FAC5
:1032700003F17B681A6E7B681B680A439A627B685D
:103280001B6800211846FFF736FD02467B685B6B22
:103290009A420BD17B680022DA657B689B6D23F034
:1032A000030343F001027B689A6518E07B689B6D1D
:1032B00023F0120343F010027B689A657B68DB6D94
:1032C00043F001027B68DA650123FB7707E07B6846
:1032D0009B6D43F010027B689A650123FB77FB7FAF
:1032E00018462037BD4680BD80B584B000AF7860F9
:1032F0007B68002B01D101236AE07B689B6D43F062
:1033000002027B689A65786800F0BEFA0346FB7398
:10331000FB7B002B0FD1786800F082FB0346FB7328
:10332000FB7B002B02D17B6801229A657B681B68BE
:103330001846FFF77FFD7B681B685B687A68126838
:1033400023F4677323F0030353607B681B6840F228
:103350009F321A607B681B68D9687B681A681E4BAD
:103360000B40D3607B681B681A697B681B6822F07E
:1033700040421A617B681B685A697B681B6822F0AF
:1033800007025A617B681B681A6A7B681B6802F037
:10339000F0221A627B681B689B6A7B681B680022AC
:1033A0009A620E4B1B680D4A23F0FE731360786817
:1033B000FDF75CFE7B6800221A667B680022DA65F6
:1033C0007B6800229A657B68002283F85420FB7B8F
:1033D00018461037BD4680BD00023E8308270140D5
:1033E00080B584B000AF78607B681B681846FFF733
:1033F000B5FD0346002B32D17B6893F85430012B86
:1034000001D102232EE07B68012283F854207868E2
:1034100000F080FA0346FB73FB7B002B1AD17B681C
:103420009B6D23F4706323F0010343F480727B6887
:103430009A657B680022DA657B681B681C221A602B
:103440007B68002283F854207B681B681846FFF7CE
:103450005FFD06E07B68002283F8542001E0022330
:10346000FB73FB7B18461037BD4680BD80B584B02A
:1034700000AF78607B6893F85430012B01D10223B0
:1034800022E07B68012283F85420786800F0FCF980
:103490000346FB73FB7B002B11D1786800F0C0FA68
:1034A0000346FB73FB7B002B09D17B689B6D23F4E8
:1034B000807323F0010343F001027B689A657B6807
:1034C000002283F85420FB7B18461037BD4680BD90
:1034D00080B584B000AF786039607B685B69082B89
:1034E00002D10823FB6010E07B681B68DB6803F0F7
:1034F0000103002B07D07B689B6D43F020027B68A3
:103500009A65012377E00423FB60FEF74FFCB86067
:1035100021E03B68B3F1FF3F1DD0FEF747FC0246B8
:10352000BB68D31A3A689A4202D33B68002B12D187
:103530007B681B681A68FB681340002B0BD17B6803
:103540009B6D43F004027B689A657B68002283F8D8
:10355000542003234FE07B681B681A68FB68134004
:10356000002BD6D07B689B6D43F400727B689A6514
:103570007B681B681846FFF7D6FB0346002B31D04B
:103580007B689B7E002B2DD17B681B681B6803F03A
:103590000803082B26D17B681B681846FFF7DEFC62
:1035A0000346002B12D17B681B685A687B681B6836
:1035B00022F00C025A607B689B6D23F4807323F029
:1035C000010343F001027B689A650BE07B689B6D09
:1035D00043F020027B689A657B68DB6D43F0010253
:1035E0007B68DA657B681B7E002B03D17B681B68D8
:1035F0000C221A60002318461037BD4680BD80B4E7
:1036000083B000AF78607B681B681B6C18460C3772
:10361000BD4680BC7047000080B588B000AF7860C0
:1036200039600023FB770023BB607B681B69B3F123
:10363000004F7B6893F85430012B01D1022310E135
:103640007B68012283F854207B681B681846FFF7CB
:1036500085FC0346002B40F0F7803B685B68022B3B
:1036600000F0B1807B681B69B3F1004F04D07B6828
:103670001B697E4A934208D17B681A683B681B68C5
:1036800019461046FFF782FB41E07B681A6E3B68E3
:103690005B6803F01F030F2101FA03F3DB431A40B9
:1036A0003B681B68C3F31103002B05D13B681B6803
:1036B0009B0E03F01F0311E03B681B683B613B69F5
:1036C00093FAA3F3FB60FB687B617B69002B01D15C
:1036D000202303E07B69B3FA83F3DBB239684968DE
:1036E00001F01F018B401A437B681A663B685B68D8
:1036F0009B085A1C7B68DB699A4208D87B6818686B
:103700003B6859683B681B681A46FFF71EFB7B68DD
:1037100018683B6819683B689B681A46FFF75BFBB3
:103720003B681B68002B80F297805148FFF7B8FA7E
:10373000B8613B681B684F4A934220D1BB6903F4D0
:103740000003002B1BD1BB6943F400031946484812
:10375000FFF794FA484B1B689B09484AA2FB0323D6
:103760009B095A1C13465B0013449B00BB6002E09C
:10377000BB68013BBB60BB68002BF9D16CE03B68C8
:103780001B683F4A93420CD1BB6903F08073002B46
:1037900007D1BB6943F0807319463548FFF76EFACD
:1037A0005AE03B681B68374A934255D1BB6903F422
:1037B0008003002B50D1BB6943F4800319462C4889
:1037C000FFF75CFA48E07B681B69B3F1004F04D057
:1037D0007B681B69254A934207D17B681A683B685E
:1037E0001B6819461046FFF7E3FA3B681B68002B7D
:1037F00032DA1F48FFF754FAB8613B681B681D4A6C
:10380000934207D1BB6923F4000319461848FFF718
:1038100035FA21E03B681B68194A934207D1BB691E
:1038200023F0807319461248FFF728FA14E03B682A
:103830001B68144A93420FD1BB6923F480031946D5
:103840000B48FFF71BFA07E07B689B6D43F02002F3
:103850007B689A650123FB777B68002283F85420FC
:10386000FB7F18462037BD4680BD00BF04000080A6
:1038700008270140001000B000000020632D3E0525
:10388000004000B8002000B480B584B000AF78607C
:103890007B681B681846FFF761FB0346002B33D09B
:1038A0007B681B681846FFF721FB0346002B04D1F9
:1038B0007B681B681846FFF73EFBFEF777FAF86057
:1038C0001BE0FEF773FA0246FB68D31A022B14D9E9
:1038D0007B681B689B6803F00403002B0DD07B689A
:1038E0009B6D43F010027B689A657B68DB6D43F04B
:1038F00001027B68DA65012307E07B681B689B682F
:1039000003F00403002BDCD1002318461037BD461A
:1039100080BD000080B584B000AF78600023BB603C
:103920007B681B681846FFF7CFFA0346002B69D166
:103930007B681B689A68364B1340002B0DD07B6860
:103940009B6D43F010027B689A657B68DB6D43F0EA
:1039500001027B68DA65012355E07B681B68184625
:10396000FFF78CFA2B48FFF79BF9034603F400039B
:10397000002B0FD0284B1B689B09284AA2FB03236E
:103980009B090133BB6002E0BB68013BBB60BB68C5
:10399000002BF9D17B685B7E012B33D0FEF706FA52
:1039A000F86028E07B681B681846FFF78DFA03462D
:1039B000002B04D17B681B681846FFF75FFAFEF7FF
:1039C000F5F90246FB68D31A022B14D97B681B68F1
:1039D0001B6803F00103012B0DD07B689B6D43F046
:1039E00010027B689A657B68DB6D43F001027B689F
:1039F000DA65012307E07B681B681B6803F001039D
:103A0000012BCFD1002318461037BD4680BD00BF23
:103A1000170000800827014000000020632D3E05AC
:103A200080B584B000AF78607B681B681846FFF7EC
:103A30005DFAF8607B681B681846FFF745FA034695
:103A4000002B47D0FB68002B44D17B681B689B6828
:103A500003F00503012B0CD17B681B681846FFF7A8
:103A600020FA7B681B6803221A60FEF79FF9B86092
:103A700029E07B689B6D43F010027B689A657B6848
:103A8000DB6D43F001027B68DA65012323E0FEF77A
:103A90008DF90246BB68D31A022B14D97B681B68C8
:103AA0009B6803F00103002B0DD07B689B6D43F0F6
:103AB00010027B689A657B68DB6D43F001027B68CE
:103AC000DA65012307E07B681B689B6803F001034C
:103AD000002BDCD1002318461037BD4680BD80B4D2
:103AE00083B000AF786039607B68D3F8B43023F0DE
:103AF0007F023B681A437B68C3F8B42000BF0C37D1
:103B0000BD4680BC704780B483B000AF78607B68EE
:103B1000D3F8B43003F07F0318460C37BD4680BCA1
:103B2000704780B483B000AF78607B689B6823F0F7
:103B3000004323F0170343F001027B689A6000BF43
:103B40000C37BD4680BC704780B483B000AF78604E
:103B50007B689B6823F0004323F0170343F00202C5
:103B60007B689A6000BF0C37BD4680BC704780B44C
:103B700083B000AF78607B689B6803F00103012B82
:103B800001D1012300E0002318460C37BD4680BC5C
:103B9000704780B483B000AF78607B689B6823F087
:103BA000004323F0170343F000427B689A6000BF94
:103BB0000C37BD4680BC704780B483B000AF7860DE
:103BC0007B689B6803F00043B3F1004F01D10123F0
:103BD00000E0002318460C37BD4680BC704780B516
:103BE00088B000AF78600023BB600023BB617B68B6
:103BF00093F85430012B01D10223B9E07B680122F4
:103C000083F854207868FFF70BFF0346FB757B6849
:103C10001B681846FFF7ABFF0346002B40F09D8062
:103C20007B689B6D23F4817343F002027B689A6585
:103C30007B681B68DA6848F2030313403B617B68CA
:103C40001B68DB687A68126823F4004323F00303DF
:103C5000D3600023FB612EE07B681B681846FFF7EA
:103C600098FF14E0BB680133BB60BB68B3F52E3F1F
:103C70000DD37B689B6D23F0120343F010027B6829
:103C80009A657B68002283F85420012370E07B68EA
:103C90001B681846FFF790FF0346002BE2D17B68B4
:103CA0001B681846FFF72FFF0246BB691344BB6130
:103CB000FB690133FB61FB69072BCDD9BA69FB694D
:103CC000B2FBF3F3BB617B681B681846FFF729FF63
:103CD0007B681B68B9691846FFF701FF7B681B68A2
:103CE0001846FFF731FFFEF761F8F8601CE0FEF7B9
:103CF0005DF80246FB68D31A022B15D97B681B6856
:103D00001846FFF734FF0346002B0DD07B689B6DF0
:103D100043F010027B689A657B68DB6D43F001021B
:103D20007B68DA65012323E07B681B681846FFF790
:103D30001EFF0346002BDAD17B681B68D9687B68BD
:103D40001B683A690A43DA607B689B6D23F00303C2
:103D500043F001027B689A6505E07B689B6D43F048
:103D600010027B689A657B68002283F85420FB7DF3
:103D700018462037BD4680BD80B485B000AF78605E
:103D80007B6803F00703FB600C4BDB68BB60BA6821
:103D90004FF6FF031340BB60FB681A02BB68134376
:103DA00043F0BF6343F40033BB60044ABB68D36095
:103DB00000BF1437BD4680BC704700BF00ED00E077
:103DC00080B400AF044BDB681B0A03F007031846FE
:103DD000BD4680BC704700BF00ED00E080B483B0FA
:103DE00000AF0346FB7197F90730002B0BDBFB7923
:103DF00003F01F02064997F907305B09012000FA1A
:103E000002F241F8232000BF0C37BD4680BC70474A
:103E100000E100E080B483B000AF0346FB7197F986
:103E20000730002B12DBFB7903F01F020A4997F9D8
:103E300007305B09012000FA02F2203341F8232009
:103E4000BFF34F8F00BFBFF36F8F00BF00BF0C37B2
:103E5000BD4680BC704700BF00E100E080B483B085
:103E600000AF03463960FB7197F90730002B0ADB7E
:103E70003B68DAB20C4997F907301201D2B20B4411
:103E800083F800230AE03B68DAB20849FB7903F0C3
:103E90000F03043B1201D2B20B441A7600BF0C3759
:103EA000BD4680BC704700BF00E100E000ED00E0CF
:103EB00080B489B000AFF860B9607A60FB6803F045
:103EC0000703FB61FB69C3F10703042B28BF04232D
:103ED000BB61FB690433062B02D9FB69033B00E09D
:103EE00000237B614FF0FF32BB6902FA03F3DA4330
:103EF000BB681A407B699A404FF0FF317B6901FA39
:103F000003F3D9437B680B40134318462437BD465F
:103F100080BC704780B582B000AF78607868FFF7EA
:103F20002BFF00BF0837BD4680BD80B586B000AF0F
:103F30000346B9607A60FB73FFF742FF78617A68E5
:103F4000B9687869FFF7B4FF024697F90F30114658
:103F50001846FFF783FF00BF1837BD4680BD80B508
:103F600082B000AF0346FB7197F907301846FFF7A0
:103F700035FF00BF0837BD4680BD80B582B000AFB9
:103F80000346FB7197F907301846FFF743FF00BF60
:103F90000837BD4680BD000080B582B000AF7860B4
:103FA0007B68002B01D101238EE07B681B681A46D9
:103FB000474B9A420FD87B681B681A46454B1344FF
:103FC000454AA2FB03231B099A007B685A647B685D
:103FD000424A1A640EE07B681B681A46404B134441
:103FE0003D4AA2FB03231B099A007B685A647B6845
:103FF0003C4A1A647B68022283F825207B681B6890
:104000001B687A68126823F4FF4323F0700313607F
:104010007B681B6819687B689A687B68DB681A4351
:104020007B681B691A437B685B691A437B689B69E1
:104030001A437B68DB691A437B681B6A1A437B68F7
:104040001B680A431A60786800F024FB7B689B6851
:10405000B3F5804F02D17B6800225A607B685A68B2
:104060007B689B6C02F07F021A607B68DB6C7A686D
:10407000126D5A607B685B68002B10D07B685B68B0
:10408000042B0CD8786800F04DFB7B685B6D002238
:104090001A607B689B6D7A68D26D5A6008E07B6815
:1040A00000225A657B6800229A657B680022DA65E7
:1040B0007B680022DA637B68012283F825207B6815
:1040C000002283F82420002318460837BD4680BD0F
:1040D00007040240F8FFFDBFCDCCCCCC000002406D
:1040E000F8FBFDBF0004024080B582B000AF7860ED
:1040F0007B68002B01D101237BE07B681B681A6879
:104100007B681B6822F001021A607B681B681A46F4
:104110003A4B9A420FD87B681B681A46384B1344B7
:10412000384AA2FB03231B099A007B685A647B6808
:10413000354A1A640EE07B681B681A46334B1344F9
:10414000304AA2FB03231B099A007B685A647B68F0
:104150002F4A1A647B681B6800221A607B685B6CBC
:1041600003F01C027B681B6C012101FA02F25A6009
:10417000786800F08FFA7B689B6C00221A607B687D
:10418000DB6C7A68126D5A607B685B68002B0FD01D
:104190007B685B68042B0BD8786800F0C3FA7B68F7
:1041A0005B6D00221A607B689B6D7A68D26D5A60E5
:1041B0007B6800225A657B6800229A657B68002232
:1041C000DA657B680022DA627B6800221A637B680A
:1041D00000225A637B6800229A637B680022DA63BC
:1041E0007B68002283F825207B68002283F8242046
:1041F000002318460837BD4680BD00BF07040240B3
:10420000F8FFFDBFCDCCCCCC00000240F8FBFDBFD9
:104210000004024080B586B000AFF860B9607A60F3
:104220003B600023FB75FB6893F82430012B01D120
:10423000022369E0FB68012283F82420FB6893F8DD
:104240002530DBB2012B55D1FB68022283F82520F3
:10425000FB680022DA63FB681B681A68FB681B684E
:1042600022F001021A603B687A68B968F86800F0C9
:10427000D3F9FB681B6B002B08D0FB681B681A681E
:10428000FB681B6842F00E021A600FE0FB681B68B7
:104290001A68FB681B6822F004021A60FB681B683E
:1042A0001A68FB681B6842F00A021A60FB689B6C84
:1042B0001B6803F48033002B07D0FB689B6C1A68E3
:1042C000FB689B6C42F480721A60FB685B6D002B8C
:1042D00007D0FB685B6D1A68FB685B6D42F4807207
:1042E0001A60FB681B681A68FB681B6842F00102D1
:1042F0001A6008E0FB688022DA63FB68002283F81A
:1043000024200123FB75FB7D18461837BD4680BD70
:1043100080B483B000AF78607B68002B01D10123AB
:104320004FE07B6893F82530DBB2022B08D07B6826
:104330000422DA637B68002283F82420012340E012
:104340007B681B681A687B681B6822F00E021A6083
:104350007B689B6C1A687B689B6C22F480721A6085
:104360007B681B681A687B681B6822F001021A6070
:104370007B685B6C03F01C027B681B6C012101FAFB
:1043800002F25A607B68DB6C7A68126D5A607B6857
:104390005B6D002B0CD07B685B6D1A687B685B6D76
:1043A00022F480721A607B689B6D7A68D26D5A60C5
:1043B0007B68012283F825207B68002283F8242073
:1043C000002318460C37BD4680BC704780B584B0CA
:1043D00000AF78600023FB737B6893F82530DBB275
:1043E000022B05D07B680422DA630123FB7347E0CC
:1043F0007B681B681A687B681B6822F00E021A60D3
:104400007B681B681A687B681B6822F001021A60CF
:104410007B689B6C1A687B689B6C22F480721A60C4
:104420007B685B6C03F01C027B681B6C012101FA4A
:1044300002F25A607B68DB6C7A68126D5A607B68A6
:104440005B6D002B0CD07B685B6D1A687B685B6DC5
:1044500022F480721A607B689B6D7A68D26D5A6014
:104460007B68012283F825207B68002283F82420C2
:104470007B689B6B002B03D07B689B6B78689847AD
:10448000FB7B18461037BD4680BD000080B584B068
:1044900000AF78607B681B6C1B68FB607B681B68E7
:1044A0001B68BB607B685B6C03F01C0304229A40B2
:1044B000FB681340002B27D0BB6803F00403002BDC
:1044C00022D07B681B681B6803F02003002B07D1F8
:1044D0007B681B681A687B681B6822F004021A60FC
:1044E0007B685B6C03F01C027B681B6C042101FA87
:1044F00002F25A607B681B6B002B00F081807B68A6
:104500001B6B786898477BE07B685B6C03F01C034F
:1045100002229A40FB681340002B3DD0BB6803F099
:104520000203002B38D07B681B681B6803F0200354
:10453000002B0BD17B681B681A687B681B6822F014
:104540000A021A607B68012283F825207B681B68B9
:104550001A462E4B9A4209D97B685B6C03F01C0308
:104560002B4A022101FA03F3536008E07B685B6C7D
:1045700003F01C03274A022101FA03F353607B680E
:10458000002283F824207B68DB6A002B38D07B680C
:10459000DB6A7868984733E07B685B6C03F01C0348
:1045A00008229A40FB681340002B2AD0BB6803F016
:1045B0000803002B25D07B681B681A687B681B6882
:1045C00022F00E021A607B685B6C03F01C027B68B1
:1045D0001B6C012101FA02F25A607B680122DA6346
:1045E0007B68012283F825207B68002283F8242041
:1045F0007B685B6B002B04D07B685B6B78689847AB
:1046000000BF00BF1037BD4680BD00BF8000024024
:10461000000402400000024080B485B000AFF860A2
:10462000B9607A603B60FB68DB6CFA68126D5A60B7
:10463000FB685B6D002B04D0FB689B6DFA68D26D44
:104640005A60FB685B6C03F01C02FB681B6C012169
:1046500001FA02F25A60FB681B683A685A60FB680C
:104660009B68102B08D1FB681B687A689A60FB680E
:104670001B68BA68DA6007E0FB681B68BA689A6072
:10468000FB681B687A68DA6000BF1437BD4680BCDF
:104690007047000080B485B000AF78607B681B680D
:1046A0001A461C4B9A4213D87B685B6C9B089B0094
:1046B00003F1804303F502337A6893647B681B68D7
:1046C000DBB2083B144AA2FB03231B09FB6011E089
:1046D0007B685B6C9B089A00104B13447A68936468
:1046E0007B681B68DBB2083B0B4AA2FB03231B0958
:1046F0000733FB607B680A4ADA64FB6803F01F0338
:1047000001229A407B681A6500BF1437BD4680BC01
:10471000704700BF07040240CDCCCCCC1C0802403F
:104720008008024080B485B000AF78607B685B6829
:1047300003F07F03FB60FA680A4B13449B001A46A0
:104740007B685A657B68084A9A65FB68013B03F001
:10475000030301229A407B68DA6500BF1437BD4627
:1047600080BC70473F8200104009024080B586B08F
:1047700000AFF860B960C7E900231C4B1B78012B20
:1047800001D102232DE0194B01221A70174B002290
:104790005A604FF47A7000F069F80346FB75FB7DB0
:1047A000002B1AD1FB68012B05D1D7E90023B8688B
:1047B00000F0BEF804E03B681946B86800F0DEF887
:1047C0004FF47A7000F052F80346FB75084B5A69B3
:1047D000FB68DB43064913404B61044B00221A700F
:1047E000FB7D18461837BD4680BD00BF2C04002055
:1047F0000040005880B483B000AF0023FB710B4B26
:104800005B69002B0BDA094B094A9A60074B094A8E
:104810009A60064B5B69002B01DA0123FB71FB797F
:1048200018460C37BD4680BC704700BF004000589A
:1048300023016745AB89EFCD80B483B000AF00237F
:10484000FB71094B5B69084A43F000435361064B17
:104850005B69002B01DB0123FB71FB7918460C37E8
:10486000BD4680BC704700BF0040005880B584B092
:1048700000AF7860FDF79AFAF86009E0FDF796FA64
:104880000246FB68D31A7A689A4201D8032347E0AC
:10489000254B1B6903F48033B3F5803FEED0224BE8
:1048A0001B69BB60BB6803F00103002B02D01E4BE9
:1048B00001221A61BA684CF2FA331340BB60BB683C
:1048C00003F04043002B07D0174B9A69BB6803F0F5
:1048D0004043154913438B61BB6823F04043002BD1
:1048E00004D0114ABB6823F040431361BB68002B1E
:1048F0000ED00E4ABB685360012311E0FDF756FA53
:104900000246FB68D31A7A689A4201D8032307E06B
:10491000054B1B6903F48023B3F5802FEED00023F1
:1049200018461037BD4680BD004000582C040020BA
:1049300080B485B000AFF860C7E900230E4B5B6917
:104940000D4A43F001035361FB683A681A60BFF3F4
:104950006F8F00BFD7E900014FF000024FF0000356
:104960000A000023F968043113460B6000BF1437B6
:10497000BD4680BC704700BF0040005880B489B07D
:1049800000AF786039604023FB777B68BB613B6890
:104990007B61184B5B69174A43F480235361EFF343
:1049A0001083FB60FB683B6172B600BF7B691A68CD
:1049B000BB691A60BB690433BB617B6904337B61EB
:1049C000FB7F013BFB77FB7F002BEFD100BF094B47
:1049D0001B6903F48033B3F5803FF8D03B69BB60BB
:1049E000BB6883F3108800BF00BF2437BD4680BC7E
:1049F000704700BF0040005880B584B000AF7860B9
:104A00003960284B1B78012B01D1022346E0254B4E
:104A100001221A70234B00225A604FF47A70FFF77C
:104A200025FF0346FB73FB7B002B33D17B681B68A0
:104A3000042B08D100F080F84FF47A70FFF716FFCE
:104A40000346FB7324E03B684FF0FF321A607B683B
:104A50005B68BB6012E0B86800F07EF84FF47A70D3
:104A6000FFF704FF0346FB73FB7B002B03D03B687F
:104A7000BA681A600AE0BB680133BB607B685A6899
:104A80007B689B681344BA689A42E4D300F0C0F88C
:104A900000F07AF8034B00221A70FB7B184610379F
:104AA000BD4680BD2C04002080B584B000AF786086
:104AB0001F4B1B78012B01D1022334E01C4B012238
:104AC0001A701B4B00225A607B681B68184A93605F
:104AD0004FF47A70FFF7CAFE0346FB73FB7B002B93
:104AE00003D0134B00221A701CE0124B5B69114A71
:104AF00043F0407353617B681B68042B05D10C4B5A
:104B000000221A6100F018F80CE07B689B68084AE4
:104B100053617B685B68064A13617B685B68184673
:104B200000F01AF8FB7B18461037BD4680BD00BF69
:104B30002C0400200040005880B400AF054B5B6996
:104B4000044A43F4803343F00403536100BFBD467D
:104B500080BC70470040005880B483B000AF7860DC
:104B6000084B5B6923F47E727B68DB001343054AC4
:104B700043F4803343F00203536100BF0C37BD465A
:104B800080BC70470040005880B400AF1F4B1B68CA
:104B900003F40073012B17D11C4B1B681B4A23F431
:104BA00000731360194B1B68184A43F400631360C9
:104BB000164B1B68154A23F400631360134B1B68E4
:104BC000124A43F400731360104B1B6803F48063B4
:104BD000012B17D10D4B1B680C4A23F48063136023
:104BE0000A4B1B68094A43F480531360074B1B6848
:104BF000064A23F480531360044B1B68034A43F4B2
:104C00008063136000BFBD4680BC70470040005801
:104C100080B400AF054B5B69044A23F47E7323F034
:104C20000203536100BFBD4680BC7047004000587E
:104C300080B487B000AF7860396000237B6140E1C9
:104C40003B681A6801217B6901FA03F31340FB609A
:104C5000FB68002B00F032813B685B6803F00303C4
:104C6000012B05D03B685B6803F00303022B30D1B6
:104C70007B689B683B617B695B00032202FA03F35C
:104C8000DB433A6913403B613B68DA687B695B0050
:104C900002FA03F33A6913433B617B683A699A600D
:104CA0007B685B683B6101227B6902FA03F3DB43AB
:104CB0003A6913403B613B685B681B0903F00102E2
:104CC0007B6902FA03F33A6913433B617B683A69F3
:104CD0005A603B685B6803F00303032B17D07B68C3
:104CE000DB683B617B695B00032202FA03F3DB4371
:104CF0003A6913403B613B689A687B695B0002FA42
:104D000003F33A6913433B617B683A69DA603B68B5
:104D10005B6803F00303022B23D17B69DA087B680D
:104D2000083253F822303B617B6903F007039B0094
:104D30000F2202FA03F3DB433A6913403B613B68FD
:104D40001A697B6903F007039B0002FA03F33A69CF
:104D500013433B617B69DA087B680832396943F8A1
:104D600022107B681B683B617B695B00032202FAAF
:104D700003F3DB433A6913403B613B685B6803F034
:104D800003027B695B0002FA03F33A6913433B6158
:104D90007B683A691A603B685B6803F44033002B18
:104DA00000F08C804E4A7B699B08023352F8233016
:104DB0003B617B6903F003039B00072202FA03F3C4
:104DC000DB433A6913403B617B68B3F1904F0DD0F0
:104DD0007B68444A934207D07B68434A934201D19F
:104DE000022304E0072302E0012300E000237A69A4
:104DF00002F00302920093403A6913433B61384941
:104E00007B699B0802333A6941F82320374B1B68C2
:104E10003B61FB68DB433A6913403B613B685B687D
:104E200003F48013002B03D03A69FB6813433B6102
:104E30002E4A3B6913602D4B5B683B61FB68DB438B
:104E40003A6913403B613B685B6803F40013002B35
:104E500003D03A69FB6813433B61244A3B695360C2
:104E6000224BD3F880303B61FB68DB433A69134047
:104E70003B613B685B6803F48033002B03D03A69E5
:104E8000FB6813433B61194A3B69C2F88030174BFA
:104E9000D3F884303B61FB68DB433A6913403B61E4
:104EA0003B685B6803F40033002B03D03A69FB686E
:104EB00013433B610D4A3B69C2F884307B6901337F
:104EC0007B613B681A687B6922FA03F3002B7FF44D
:104ED000B7AE00BF00BF1C37BD4680BC704700BFE7
:104EE0000000014000040048000800480008005885
:104EF00080B487B000AF7860396000237B61AFE099
:104F000001227B6902FA03F33A6813403B613B6973
:104F1000002B00F0A280594A7B699B08023352F8AB
:104F20002330FB607B6903F003039B00072202FA36
:104F300003F3FA681340FB607B68B3F1904F0DD028
:104F40007B684F4A934207D07B684E4A934201D117
:104F5000022304E0072302E0012300E000237A6932
:104F600002F0030292009340FA689A4236D1464B0F
:104F7000D3F880203B69DB4343491340C1F88030BC
:104F8000414BD3F884203B69DB433F491340C1F8D0
:104F900084303D4B1A683B69DB433B4913400B604F
:104FA000394B5A683B69DB43374913404B607B6997
:104FB00003F003039B00072202FA03F3FB602F4A6E
:104FC0007B699B08023352F82310FB68DA432B48B5
:104FD0007B699B080A40023340F823207B681A68EB
:104FE0007B695B00032101FA03F31A437B681A60B3
:104FF0007B69DA087B68083253F822107B6903F07A
:1050000007039B000F2202FA03F3DB437A69D208FD
:1050100019407B68083243F822107B689A687B69E4
:105020005B00032101FA03F3DB431A407B689A60BB
:105030007B685A6801217B6901FA03F3DB431A405C
:105040007B685A607B68DA687B695B00032101FA40
:1050500003F3DB431A407B68DA607B6901337B61D1
:105060003A687B6922FA03F3002B7FF449AF00BF53
:1050700000BF1C37BD4680BC704700BF0000014028
:1050800000040048000800480008005880B483B0BD
:1050900000AF78600B467B8013467B707B78002BDB
:1050A00003D07A887B689A6102E07A887B689A628A
:1050B00000BF0C37BD4680BC7047000080B582B091
:1050C00000AF0346FB80084BDA68FB881340002BD7
:1050D00006D0054AFB88D360FB88184605F086FB9E
:1050E00000BF0837BD4680BD0008005880B483B0BB
:1050F00000AF78604FF0B043D3F888207B681A4047
:105100007B681B04134318460C37BD4680BC7047B0
:1051100080B582B000AF78607B68002B01D101239D
:1051200041E07B68DB6B002B06D17B68002283F8B3
:1051300038207868FDF74EFA7B682422DA637B68B2
:105140001B681A687B681B6822F001021A60786885
:1051500000F09AFA0346012B01D1012323E07B687A
:105160001B685A687B681B6822F4F0425A607B68AF
:105170001B689A687B681B6822F028029A607B682B
:105180001B689A687B681B6842F002029A607B6821
:105190001B681A687B681B6842F001021A60786815
:1051A00000F0CCFB034618460837BD4680BD80B5ED
:1051B0008AB002AFF860B9603B601346FB80FB68C1
:1051C000DB6B202B7AD1BB68002B02D0FB88002B35
:1051D00001D1012373E0FB6893F83830012B01D132
:1051E00002236CE0FB68012283F83820FB68002270
:1051F0005A64FB682122DA63FCF7D8FD7861FB680A
:10520000FA881A84FB68FA885A84FB689B68B3F5AD
:10521000805F08D1FB68DB68002B04D10023FB61B1
:10522000BB68BB6103E0BB68FB610023BB612AE094
:10523000FB685B8C9BB2013B9AB2FB685A843B686B
:1052400000937B6900228021F86800F0BCFB0346D4
:10525000002B01D0032332E0FB69002B0BD1BB698B
:105260001B881A46FB681B68C2F308029A62BB6976
:105270000233BB6107E0FB691A78FB681B689A621E
:10528000FB690133FB61FB685B8C9BB2002BCFD1C8
:105290003B6800937B6900224021F86800F093FB93
:1052A0000346002B01D0032309E0FB682022DA63C8
:1052B000FB68002283F83820002300E00223184610
:1052C0002037BD4680BD80B58AB002AFF860B960B6
:1052D0003B601346FB80FB681B6C202B40F0AD80CD
:1052E000BB68002B02D0FB88002B01D10123A5E075
:1052F000FB6893F83830012B01D102239EE0FB6854
:10530000012283F83820FB6800225A64FB682222BD
:105310001A64FCF74BFD7861FB68FA881A85FB6814
:10532000FA885A85FB689B68B3F5805F0CD1FB68EF
:10533000DB68002B04D1FB6840F2FF129A8527E05E
:10534000FB68FF229A8523E0FB689B68002B0BD14A
:10535000FB68DB68002B03D1FB68FF229A8517E00E
:10536000FB687F229A8513E0FB689B68B3F1805F3E
:105370000BD1FB68DB68002B03D1FB687F229A8589
:1053800006E0FB683F229A8502E0FB6800229A85CE
:10539000FB689B8D7B82FB689B68B3F5805F08D1BF
:1053A000FB68DB68002B04D10023FB61BB68BB6199
:1053B00003E0BB68FB610023BB6130E0FB685B8DF1
:1053C0009BB2013B9AB2FB685A853B6800937B69AC
:1053D00000222021F86800F0F6FA0346002B01D0E5
:1053E00003232BE0FB69002B0CD1FB681B685B6A75
:1053F0009AB27B8A13409AB2BB691A80BB690233A6
:10540000BB610CE0FB681B685B6ADAB27B8ADBB2CB
:105410001340DAB2FB691A70FB690133FB61FB6868
:105420005B8D9BB2002BC9D1FB6820221A64FB68FC
:10543000002283F83820002300E00223184620379A
:10544000BD4680BD80B588B000AF78607B681B68C2
:10545000DB69FB617B681B681B68BB61FB6903F050
:105460000F037B617B69002B0DD1FB6903F02003E7
:10547000002B08D0BB6903F02003002B03D0786811
:1054800000F07EFBDFE07B681B689B683B617B690B
:10549000002B00F0BB803B6903F00103002B05D11A
:1054A000BB6903F49073002B00F0B080FB6903F03C
:1054B0000103002B0ED0BB6903F48073002B09D0CD
:1054C0007B681B6801221A627B685B6C43F00102F7
:1054D0007B685A64FB6903F00203002B0ED03B6922
:1054E00003F00103002B09D07B681B6802221A62BB
:1054F0007B685B6C43F004027B685A64FB6903F0D1
:105500000403002B0ED03B6903F00103002B09D0EC
:105510007B681B6804221A627B685B6C43F00202A2
:105520007B685A64FB6903F00803002B13D0BB6946
:1055300003F02003002B04D13B6903F00103002B8F
:1055400009D07B681B6808221A627B685B6C43F099
:1055500008027B685A647B685B6C002B72D0FB6925
:1055600003F02003002B07D0BB6903F02003002BBE
:1055700002D0786800F004FB7B685B6CFB607B68A2
:105580001B689B6803F04003402B04D0FB6803F0CA
:105590000803002B31D0786800F05DFA7B681B6847
:1055A0009B6803F04003402B23D17B681B689A68FB
:1055B0007B681B6822F040029A607B685B6B002B63
:1055C00013D07B685B6B214A9A637B685B6B1846E0
:1055D000FEF7FCFE0346002B16D07B685B6B9B6BD3
:1055E0007A68526B104698470EE0786800F042F8EF
:1055F0000AE0786800F03EF806E0786800F03AF8D3
:105600007B6800225A641DE000BF1BE0FB6903F0C9
:105610008003002B08D0BB6903F08003002B03D06C
:10562000786800F048FA0EE0FB6903F04003002BB5
:1056300009D0BB6903F04003002B04D0786800F068
:1056400089FA00E000BF2037BD4680BD8F5A0008B0
:1056500080B483B000AF786000BF0C37BD4680BC1B
:10566000704780B483B000AF786000BF0C37BD4690
:1056700080BC704780B483B000AF786000BF0C3747
:10568000BD4680BC7047000080B586B000AF786032
:105690000023BB747B689A687B68DB681A437B686D
:1056A0001B6913437B617B681B681A689E4B134020
:1056B0007A68126879690B4313607B681B689B6882
:1056C00023F004027B68DB8A19467B681B680A4367
:1056D0009A607B681B68DB6A23F00F017B689A691C
:1056E0007B681B680A43DA627B681B681B6923F0CE
:1056F000FF027B681B7D19467B681B680A431A61A1
:105700007B681B68894A934221D10320FFF7EEFC96
:105710000346A3F54033032B16D801A252F823F019
:10572000315700083D570008375700084357000815
:105730000123FB7447E00223FB7444E00423FB7461
:1057400041E01023FB743EE02023FB743BE07B68C8
:105750001B68774A934234D10C20FFF7C7FC0346FD
:10576000A3F540230C2B29D801A252F823F000BF47
:10577000A5570008BD570008BD570008BD570008D1
:10578000B1570008BD570008BD570008BD570008B5
:10579000AB570008BD570008BD570008BD570008AB
:1057A000B75700080023FB740DE00223FB740AE0E6
:1057B0000423FB7407E01023FB7404E02023FB7434
:1057C00001E02023FB7400237B61FB7C102B00F2A3
:1057D000948001A252F823F01D5800084B5800088D
:1057E00079580008FB580008A1580008FB58000829
:1057F000FB580008FB580008FB580008FB5800083D
:10580000FB580008FB580008FB580008FB5800082C
:10581000FB580008FB580008CF58000801F032FA86
:10582000F8607B689B69434A32F813301A46FB687C
:10583000B3FBF2F27B685B685B081A447B685B68C9
:10584000B2FBF3F39BB27B615AE001F02DFAF860F2
:105850007B689B69374A32F813301A46FB68B3FB02
:10586000F2F27B685B685B081A447B685B68B2FB9A
:10587000F3F39BB27B6143E07B689B692D4A32F86E
:1058800013301A462C4BB3FBF2F27B685B685B0863
:105890001A447B685B68B2FBF3F39BB27B612FE039
:1058A00001F03CF9F8607B689B69224A32F81330BA
:1058B0001A46FB68B3FBF2F27B685B685B081A442C
:1058C0007B685B68B2FBF3F39BB27B6118E07B689B
:1058D0009B69184A32F813304FF40042B2FBF3F3DD
:1058E0009BB21A467B685B685B081A447B685B68FE
:1058F000B2FBF3F39BB27B6102E00123BB7400BFF8
:105900007B690F2B08D97B69B3F5803F04D27B6894
:105910001B687A69DA6001E00123BB74BB7C18461E
:105920001837BD4680BD00BFF3E9FFEF00380140E6
:105930000044004024EB01080024F40080B586B048
:1059400002AF78607B6800225A64FCF72FFAF86097
:105950007B681B681B6803F00803082B0ED14FF40B
:105960007A730093FB6800224FF40011786800F00E
:105970002AF80346002B01D0032320E07B681B6834
:105980001B6803F00403042B0ED14FF47A730093C9
:10599000FB6800224FF48001786800F014F8034699
:1059A000002B01D003230AE07B682022DA637B68A6
:1059B00020221A647B68002283F8382000231846CE
:1059C0001037BD4680BD80B584B000AFF860B960C7
:1059D0003B601346FB712AE0BB69B3F1FF3F26D061
:1059E000FCF7E4F902463B68D31ABA699A4202D33B
:1059F000BB69002B1BD1FB681B681A68FB681B681E
:105A000022F4D0721A60FB681B689A68FB681B68F6
:105A100022F001029A60FB682022DA63FB682022F0
:105A20001A64FB68002283F8382003230FE0FB6828
:105A30001B68DA69BB681340BA689A420CBF01233D
:105A40000023DBB21A46FB799A42C5D000231846E0
:105A50001037BD4680BD80B483B000AF78607B68EE
:105A60001B681A687B681B6822F490721A607B6856
:105A70001B689A687B681B6822F001029A607B6849
:105A800020221A6400BF0C37BD4680BC704780B529
:105A900084B000AF78607B689B6AFB60FB68002283
:105AA0005A85FB6800225A84F868FFF7E3FD00BFBF
:105AB0001037BD4680BD80B485B000AF78607B688C
:105AC000DB6B212B41D17B685B8C9BB2002B10D10F
:105AD0007B681B681A687B681B6822F080021A606A
