:020000040800F2
:1000000000000120BD2D0008F91C0008FF1C00089D
:10001000051D00080B1D0008111D00080000000050
:10002000000000000000000000000000171D000894
:10003000231D0008000000002F1D00083B1D0008C4
:100040000D2E00080D2E0008491D00080D2E000879
:100050000D2E00080D2E00080D2E00080D2E000894
:100060000D2E00080D2E00080D2E00085D1D000845
:10007000711D00080D2E00080D2E00080D2E000821
:100080000D2E00080D2E00080D2E00080D2E000864
:10009000000000000D2E00080D2E00080D2E000897
:1000A0000D2E00080D2E00080D2E00080D2E000844
:1000B0000D2E00080D2E00080D2E00080D2E000834
:1000C0000D2E00080D2E00080D2E00080D2E000824
:1000D000851D0008991D00080D2E00080D2E000832
:1000E0000D2E0008AD1D0008BD1D00080D2E0008D6
:1000F0000D2E000800000000000000000D2E00087A
:100100000D2E00080D2E0008D11D00080D2E000830
:100110000D2E00080D2E00080D2E00080D2E0008D3
:100120000D2E00080D2E00080D2E00080D2E0008C3
:080130000D2E0008E51D00087A
:1001380010B5054C237833B9044B13B10448AFF319
:1001480000800123237010BD500100200000000032
:10015800C0C6010808B5034B1BB103490348AFF3F8
:10016800008008BD0000000054010020C0C601083E
:1001780010F8012B11F8013B012A28BF9A42F7D049
:10018800D01A7047034613F8012B002AFBD1181A1E
:100198000138704781F0004102E000BF83F000435E
:1001A80030B54FEA41044FEA430594EA050F08BF0A
:1001B80090EA020F1FBF54EA000C55EA020C7FEACE
:1001C800645C7FEA655C00F0E2804FEA5454D4EB4B
:1001D8005555B8BF6D420CDD2C4480EA020281EA15
:1001E800030382EA000083EA010180EA020281EA4D
:1001F8000303362D88BF30BD11F0004F4FEA01319F
:100208004FF4801C4CEA113102D0404261EB4101AD
:1002180013F0004F4FEA03334CEA133302D0524233
:1002280063EB430394EA050F00F0A780A4F10104EF
:10023800D5F1200E0DDB02FA0EFC22FA05F2801829
:1002480041F1000103FA0EF2801843FA05F359410F
:100258000EE0A5F120050EF1200E012A03FA0EFC8E
:1002680028BF4CF0020C43FA05F3C01851EBE371B8
:1002780001F0004507D54FF0000EDCF1000C7EEBD5
:1002880000006EEB0101B1F5801F1BD3B1F5001F13
:100298000CD349085FEA30004FEA3C0C04F1010432
:1002A8004FEA445212F5800F80F09A80BCF1004F5B
:1002B80008BF5FEA500C50F1000041EB045141EADD
:1002C800050130BD5FEA4C0C404141EB0101013CA6
:1002D80028BFB1F5801FE9D291F0000F04BF014695
:1002E8000020B1FA81F308BF2033A3F10B03B3F167
:1002F80020020CDA0C3208DD02F1140CC2F10C02F7
:1003080001FA0CF021FA02F10CE002F11402D8BF54
:10031800C2F1200C01FA02F120FA0CFCDCBF41EA20
:100328000C019040E41AA2BF01EB0451294330BDEF
:100338006FEA04041F3C1CDA0C340EDC04F11404CC
:10034800C4F1200220FA04F001FA02F340EA0300A3
:1003580021FA04F345EA030130BDC4F10C04C4F1E9
:10036800200220FA02F001FA04F340EA03002946C9
:1003780030BD21FA04F0294630BD94F0000F83F413
:10038800801306BF81F480110134013D4EE77FEAF6
:10039800645C18BF7FEA655C29D094EA050F08BF42
:1003A80090EA020F05D054EA000C04BF1946104623
:1003B80030BD91EA030F1EBF0021002030BD5FEA67
:1003C800545C05D14000494128BF41F0004130BD8F
:1003D80014F580043CBF01F5801130BD01F00045E3
:1003E80045F0FE4141F470014FF0000030BD7FEA56
:1003F800645C1ABF194610467FEA655C1CBF0B4651
:10040800024650EA013406BF52EA033591EA030F67
:1004180041F4002130BD00BF90F0000F04BF00215F
:10042800704730B54FF4806404F132044FF0000592
:100438004FF0000150E700BF90F0000F04BF00210B
:10044800704730B54FF4806404F1320410F0004571
:1004580048BF40424FF000013EE700BF42004FEA6C
:10046800E2014FEA31014FEA02701FBF12F07F43E9
:1004780093F07F4F81F06051704732F07F4208BFA0
:10048800704793F07F4F04BF41F40021704730B5A7
:100498004FF4607401F0004521F000411CE700BFF3
:1004A80050EA010208BF704730B54FF000050AE076
:1004B80050EA010208BF704730B511F0004502D577
:1004C800404261EB41014FF4806404F132045FEA79
:1004D800915C3FF4D8AE4FF003025FEADC0C18BF22
:1004E80003325FEADC0C18BF033202EBDC02C2F114
:1004F800200300FA03FC20FA02F001FA03FE40EAA6
:100508000E0021FA02F11444BDE600BF4FF0FF3C93
:1005180006E000BF4FF0010C02E000BF4FF0010CF5
:100528004DF804CD4FEA410C7FEA6C5C4FEA430C6E
:1005380018BF7FEA6C5C1BD001B050EA410C0CBFBD
:1005480052EA430C91EA030F02BF90EA020F00201F
:10055800704710F1000F91EA030F58BF994208BF86
:1005680090422CBFD8176FEAE37040F00100704743
:100578004FEA410C7FEA6C5C02D150EA013C07D19A
:100588004FEA430C7FEA6C5CD6D152EA033CD3D0E5
:100598005DF8040B704700BF8446104662468C46DF
:1005A8001946634600E000BF01B5FFF7B7FF002812
:1005B80048BF10F1000F01BD4DF808EDFFF7F4FF3B
:1005C8000CBF012000205DF808FB00BF4DF808EDC6
:1005D800FFF7EAFF34BF012000205DF808FB00BFE9
:1005E8004DF808EDFFF7E0FF94BF012000205DF80B
:1005F80008FB00BF4DF808EDFFF7CEFF94BF0120C0
:1006080000205DF808FB00BF4DF808EDFFF7C4FFB8
:1006180034BF012000205DF808FB00BF4FEA41020B
:1006280012F5001215D211D56FF47873B3EB62523C
:1006380012D94FEAC12343F0004343EA505311F063
:10064800004F23FA02F018BF404270474FF00000F5
:10065800704750EA013005D111F0004008BF6FF033
:10066800004070474FF00000704700BF80F0004026
:1006780002E000BF81F0004142001FBF5FEA410372
:1006880092EA030F7FEA226C7FEA236C6AD04FEA72
:100698001262D2EB1363C1BFD218414048404140B7
:1006A800B8BF5B42192B88BF704710F0004F40F469
:1006B800000020F07F4018BF404211F0004F41F485
:1006C800000121F07F4118BF494292EA030F3FD051
:1006D800A2F1010241FA03FC10EB0C00C3F1200364
:1006E80001FA03F100F0004302D5494260EB4000F3
:1006F800B0F5000F13D3B0F1807F06D340084FEA5E
:10070800310102F10102FE2A51D2B1F1004F40EB52
:10071800C25008BF20F0010040EA030070474900BA
:1007280040EB0000013A28BFB0F5000FEDD2B0FA57
:1007380080FCACF1080CB2EB0C0200FA0CF0AABF7A
:1007480000EBC25052421843BCBFD0401843704718
:1007580092F0000F81F4000106BF80F4000001321E
:10076800013BB5E74FEA41037FEA226C18BF7FEAF5
:10077800236C21D092EA030F04D092F0000F08BF37
:100788000846704790EA010F1CBF0020704712F01E
:100798007F4F04D1400028BF40F00040704712F15D
:1007A80000723CBF00F50000704700F0004343F0C2
:1007B800FE4040F4000070477FEA226216BF0846F8
:1007C8007FEA23630146420206BF5FEA412390EABB
:1007D800010F40F4800070474FF0000304E000BFB1
:1007E80010F0004348BF40425FEA000C08BF704762
:1007F80043F0964301464FF000001CE050EA010226
:1008080008BF70474FF000030AE000BF50EA01023A
:1008180008BF704711F0004302D5404261EB410127
:100828005FEA010C02BF84460146002043F0B6434C
:1008380008BFA3F18053A3F50003BCFA8CF2083A71
:10084800A3EBC25310DB01FA02FC634400FA02FC7A
:10085800C2F12002BCF1004F20FA02F243EB020081
:1008680008BF20F00100704702F1200201FA02FCE3
:10087800C2F1200250EA4C0021FA02F243EB0200D6
:1008880008BF20EADC7070474FF0FF0C1CEAD0521A
:100898001EBF1CEAD15392EA0C0F93EA0C0F6FD0DB
:1008A8001A4480EA010C400218BF5FEA41211ED0B9
:1008B8004FF0006343EA501043EA5111A0FB0131A5
:1008C8000CF00040B1F5000F3EBF490041EAD3717A
:1008D8005B0040EA010062F17F02FD2A1DD8B3F1F6
:1008E800004F40EBC25008BF20F00100704790F065
:1008F800000F0CF0004C08BF49024CEA502040EAB7
:1009080051207F3AC2BFD2F1FF0340EAC25070477C
:1009180040F400004FF00003013A5DDC12F1190FBA
:10092800DCBF00F000407047C2F10002410021FA2C
:1009380002F1C2F1200200FA02FC5FEA310040F144
:10094800000053EA4C0308BF20EADC70704792F0BD
:10095800000F00F0004C02BF400010F4000F013AF5
:10096800F9D040EA0C0093F0000F01F0004C02BFF0
:10097800490011F4000F013BF9D041EA0C018FE75F
:100988000CEAD15392EA0C0F18BF93EA0C0F0AD065
:1009980030F0004C18BF31F0004CD8D180EA01008B
:1009A80000F00040704790F0000F17BF90F0004F24
:1009B800084691F0000F91F0004F14D092EA0C0F06
:1009C80001D142020FD193EA0C0F03D14B0218BF99
:1009D800084608D180EA010000F0004040F0FE40DF
:1009E80040F40000704740F0FE4040F4400070477B
:1009F8004FF0FF0C1CEAD0521EBF1CEAD15392EAFA
:100A08000C0F93EA0C0F69D0A2EB030280EA010CE9
:100A180049024FEA402037D04FF0805343EA111182
:100A280043EA10130CF000408B4238BF5B0042F1E0
:100A38007D024FF4000C8B4224BF5B1A40EA0C0085
:100A4800B3EB510F24BFA3EB510340EA5C00B3EBB7
:100A5800910F24BFA3EB910340EA9C00B3EBD10FA5
:100A680024BFA3EBD10340EADC001B0118BF5FEAF7
:100A78001C1CE0D1FD2A3FF650AF8B4240EBC25020
:100A880008BF20F0010070470CF0004C4CEA5020E1
:100A98007F32C2BFD2F1FF0340EAC250704740F430
:100AA80000004FF00003013A37E792F0000F00F022
:100AB800004C02BF400010F4000F013AF9D040EAA0
:100AC8000C0093F0000F01F0004C02BF490011F434
:100AD800000F013BF9D041EA0C0195E70CEAD1532C
:100AE80092EA0C0F08D142027FF47DAF93EA0C0F13
:100AF8007FF470AF084676E793EA0C0F04D14B02F7
:100B08003FF44CAF08466EE730F0004C18BF31F0A8
:100B1800004CCAD130F000427FF45CAF31F00043A2
:100B28007FF43CAF5FE700BF4FEA4002B2F1FE4FEF
:100B38000FD34FF09E03B3EB12620DD94FEA002397
:100B480043F0004310F0004F23FA02F018BF404270
:100B580070474FF00000704712F1610F01D1420257
:100B680005D110F0004008BF6FF0004070474FF00B
:100B78000000704742000ED2B2F1FE4F0BD34FF087
:100B88009E03B3EB126209D44FEA002343F00043FB
:100B980023FA02F070474FF00000704712F1610F1E
:100BA80001D1420202D14FF0FF3070474FF00000F0
:100BB800704700BF53B94AB9002908BF00281CBFB5
:100BC8004FF0FF314FF0FF3000F074B9ADF1080C71
:100BD8006DE904CE00F006F8DDF804E0DDE9022353
:100BE80004B070472DE9F047089E0D460446884634
:100BF800002B4DD18A42944668D9B2FA82F252B19A
:100C080001FA02F3C2F1200120FA01F10CFA02FC08
:100C180041EA030894404FEA1C45210CB8FBF5FE55
:100C28001FFA8CF705FB1E8341EA03430EFB07F10D
:100C380099420BD91CEB03030EF1FF3080F01E81A3
:100C4800994240F21B81AEF1020E63445B1AA4B2D2
:100C5800B3FBF5F005FB103344EA034400FB07F748
:100C6800A7420AD91CEB040400F1FF3380F0088185
:100C7800A74240F2058164440238E41B40EA0E4072
:100C880000211EB1D4400023C6E90043BDE8F08727
:100C98008B4208D9002E00F0EE800021C6E900053D
:100CA8000846BDE8F087B3FA83F100294AD1AB4280
:100CB80002D3824200F2F980841A65EB0303012013
:100CC8009846002EE2D0C6E90048DFE702B9FFDE09
:100CD800B2FA82F2002A40F09180A1EB0C054FEAAB
:100CE8001C471FFA8CFE0121B5FBF7F307FB1350D5
:100CF800250C45EA00450EFB03F0A84208D91CEB79
:100D0800050503F1FF3802D2A84200F2CB80434622
:100D18002D1AA4B2B5FBF7F007FB105544EA0544B9
:100D28000EFB00FEA64508D91CEB040400F1FF35B4
:100D380002D2A64500F2BB802846A4EB0E0440EA86
:100D480003409EE7C1F120078B4022FA07FC4CEADA
:100D5800030C20FA07F405FA01F31C43FD404FEA9F
:100D68001C4900FA01F3B5FBF9F8200C1FFA8CFEB8
:100D780009FB185540EA054508FB0EF0A84202FA9F
:100D880001F20BD91CEB050508F1FF3A80F08880C9
:100D9800A84240F28580A8F1020865442D1AA4B241
:100DA800B5FBF9F009FB105544EA054500FB0EFEBA
:100DB800AE4508D91CEB050500F1FF346CD2AE45F1
:100DC8006AD90238654440EA0840A0FB0294A5EBC2
:100DD8000E05A542C846A64656D353D05EB1B3EB1E
:100DE800080265EB0E0505FA07F722FA01F3CD4074
:100DF8001F43C6E900750021BDE8F087C2F1200352
:100E080020FA03F10CFA02FC25FA03F395400D438E
:100E18004FEA1C471FFA8CFEB3FBF7F107FB1130B2
:100E28002B0C43EA004301FB0EF0984204FA02F44B
:100E380008D91CEB030301F1FF382FD298422DD9B2
:100E4800023963441B1AADB2B3FBF7F007FB10334A
:100E580045EA034500FB0EF3AB4208D91CEB050538
:100E680000F1FF3816D2AB4214D902386544ED1AA6
:100E780040EA014138E73146304607E78646E5E66D
:100E88001846FAE64B45A9D2B9EB020864EB0C0EFA
:100E98000138A3E74046EAE7204694E74146D1E710
:100EA800D0467BE7023B654432E7084609E76444DD
:100EB800023842E7704700BF80B485B000AF786061
:100EC8004FF0B0431A6E4FF0B0417B6813430B6686
:100ED8004FF0B0431A6E7B681340FB60FB6800BF9D
:100EE8001437BD4680BC704780B483B000AF7860CB
:100EF8004FF0B0431A6E7B68DB434FF0B0411340AC
:100F08000B6600BF0C37BD4680BC704780B500AF8C
:100F1800234B244A1A60224B4FF000425A60204B60
:100F280000229A601E4B0022DA601D4B00221A61D3
:100F38001B4B04225A611A4B00221A76184B0022C6
:100F48005A76174B00229A76154B0122DA61144B18
:100F5800002283F82020124B00225A62104B0022F4
:100F68009A620F4B002283F82C200D4B4FF48052CD
:100F78001A630B4B07225A63094B07229A63084BE3
:100F8800002283F83C20064B0022DA64044802F071
:100F9800DDF90346002B01D000F0E8FD00BF80BD5D
:100FA8006C0100200024014080B582B000AF786059
:100FB8007B681B68054A934203D14FF40070FFF722
:100FC8007BFF00BF0837BD4680BD00BF002401403D
:100FD80080B582B000AF78607B681B68054A934291
:100FE80003D14FF40070FFF77FFF00BF0837BD46FD
:100FF80080BD00BF0024014080B400AF034B044A09
:101008001A6000BFBD4680BC704700BF6C0100205D
:101018000024014080B582B000AF0023FB8000238C
:101028003B60134800F02AF838603B68002B02D177
:101038000023FB8016E00F4B1B884FF6FF7293428C
:101048000BD00C4B1B881A4640F6E44303FB02F214
:101058003B68B2FBF3F3FB8004E0074A3B68B2FB52
:10106800F3F3FB80FB8818460837BD4680BD00BFF8
:10107800002000B4AA75FF1FD8084C0080B586B0C0
:1010880000AF786000237B6107F1080300221A6033
:101098005A609A60FFF73AFF1A4802F086FF034643
:1010A800002B01D000F062FD7B68BB600023FB6071
:1010B80000233B6107F108031946124802F092FC2D
:1010C8000346002B01D000F051FD0E4802F06EFBE4
:1010D8000346002B01D000F049FD4FF0FF310948CD
:1010E80002F0DCFB074802F0A7FB064802F06DFCA3
:1010F8007861044802F0DEFA7B6918461837BD4665
:1011080080BD00BF6C01002080B485B000AF78605E
:101118004FF0B0439A6C4FF0B0417B6813438B6437
:101128004FF0B0439A6C7B681340FB60FB6800BFCC
:101138001437BD4680BC704780B500AF0420FFF768
:10114800E3FF0120FFF7E0FF002202210B2003F05C
:10115800D2F80B2003F0E9F8002200210C2003F05C
:10116800CAF80C2003F0E1F8002200213D2003F02A
:10117800C2F83D2003F0D9F800BF80BD80B400AFAD
:10118800064B1B6903F40023B3F5002F01D101239B
:1011980000E000231846BD4680BC70470040005858
:1011A80080B58CB000AFF860B9607A603B6000230E
:1011B800FB62FB6803F17842564B1B689902564B59
:1011C8000B40B2FBF3F101FB03F3D31ADB0ABB615B
:1011D800FA687B68134403F17843013B4D4A12686F
:1011E80091024D4A0A40B3FBF2F101FB02F29B1A4D
:1011F800DB0A7B617B68BB62FB687B62BB683B6226
:10120800BB68002B09D07B6803F00703002B04D1CF
:10121800FB6803F00703002B02D06FF0040374E0AF
:101228003E4B5B69002B02DA6FF003036DE0BA698D
:101238007B699A4205D0FB68C3F30A03C3F50063D0
:10124800BB62BB69FB615BE07B6AB96A184600F068
:10125800F8F80346002B37D03B68002B02D16FF01B
:10126800040352E0FB6903F58033DB024FF40062AC
:101278001946386819F074FF7B6AC3F30A033A68A1
:101288001344396ABA6A92B2184619F069FF002203
:101298000121F86900F065F80346002B03D06FF0D0
:1012A8000103FB6230E0FB6903F58033DB024FF496
:1012B80000623968184600F08AF80346002B10D0FF
:1012C8006FF00203FB621FE03B6ABA6A1946786A4C
:1012D80000F07DF80346002B03D06FF00203FB6299
:1012E80012E07A6ABB6A13447B623A6ABB6A1344A7
:1012F8003B627A68BB6AD31ABB62FB690133FB6144
:10130800FA697B699A429FD9FB6A18463037BD460D
:1013180080BD00BFE075FF1F00FCFF0300400058C0
:1013280080B584B000AFF860C7E900230BE000BFC8
:10133800FFF724FF0346002BFAD1D7E90023F96809
:10134800012003F08BFCFB68D3E90023D7E90001F7
:10135800994208BF9042EAD1002318461037BD468B
:1013680080BD80B58AB000AFF8600B467A607B819B
:101378000223BB61FB68FB617B893B627B68002BB6
:1013880008D007F11803184603F006FE034687F84D
:1013980027300AE007F1140207F11803114618462E
:1013A80003F0A2FD034687F8273097F82730002B73
:1013B80008D097F82730022B01D1012303E06FF002
:1013C800010300E0002318462837BD4680BD80B5DC
:1013D8008AB000AFF860B9607A60BB687B620023AE
:1013E8003B620023FB6120E007F110030822796AC1
:1013F800184619F0B5FED7E90423B3F1FF3F08BF3B
:10140800B2F1FF3F05D0D7E90423F868FFF788FF5A
:101418003862FB680833FB607B6A08337B623B6A8F
:10142800002B08D1FB690133FB617B68DB08FA6993
:101438009A42D9D300E000BF3B6A18462837BD4618
:1014480080BD80B485B000AF786039600AE07B6801
:101458005A1C7A601B78FF2B01D0012339E03B68C6
:10146800013B3B607B6803F00703002BEFD17B68EF
:10147800FB600023BB6010E0FB6803F10802FA6020
:10148800D3E90023B3F1FF3F08BFB2F1FF3F01D01A
:1014980001231EE0BB680133BB603B68DB08BA6808
:1014A8009A42E9D3BB68DB003A68D31A3B60FB6811
:1014B8007B600AE07B685A1C7A601B78FF2B01D09E
:1014C800012306E03B68013B3B603B68002BF1D100
:1014D800002318461437BD4680BC704780B485B0D9
:1014E80000AF78604FF0B043DA6C4FF0B0417B68E2
:1014F8001343CB644FF0B043DA6C7B681340FB6056
:10150800FB6800BF1437BD4680BC704780B586B005
:1015180000AF3B1D00221A605A609A60DA601A61B7
:101528000420FFF7DBFF0220FFF7D8FF0120FFF7B9
:10153800D5FF00224FF48361294804F01FF80122E7
:101548002021274804F01AF8002240F221214FF008
:10155800904004F013F84FF487637B600123BB606D
:101568000023FB6003233B613B1D19461C4803F025
:10157800D7FD21237B600123BB600023FB6003238D
:101588003B613B1D19464FF0904003F0C9FD4FF4F5
:1015980000537B604FF40413BB600123FB603B1DC9
:1015A80019460F4803F0BCFD4FF400737B6001231C
:1015B800BB600123FB6000233B613B1D19464FF0D4
:1015C800904003F0ADFD00220021292002F093FE97
:1015D800292002F0AAFE00BF1837BD4680BD00BF13
:1015E8000004004880B483B000AF78604FF0B04387
:1015F800D3F8903023F018024FF0B0417B681343C2
:10160800C1F8903000BF0C37BD4680BC7047000061
:1016180084B080B582B000AF07F1100C8CE80F00E1
:10162800391D0A23012207F1100004F0C4F803460B
:10163800032B1CD801A252F823F000BF551600084E
:10164800771600086B160008731600080C4B1B78F9
:101658005A1CD1B20A4A11701A463979094B995461
:1016680005E0052000F0A0FD01E0012300E00023D3
:1016780018460837BD46BDE8804004B0704700BF33
:10168800D0010020D401002080B582B000AF094A03
:101698003B1D1268114619800233120C1A70391D4D
:1016A80032230222044803F0FAFF00BF0837BD4680
:1016B80080BD00BFD8C601083803002080B586B0B9
:1016C80000AF78600B46FB70FB78073B7A681344E1
:1016D8001B78303B9BB21A465201D21A920013442F
:1016E800DB007B82FB78063B7A6813441B78303B2F
:1016F8009BB21A46920013441A4691001A460B46AA
:1017080013449B009AB27B8A13447B82FB78053B87
:101718007A6813441B78303B9BB21A4692001344F4
:101728005B009AB27B8A13447B82FB78043B7A681D
:1017380013441B789AB27B8A13449BB2303B7B825A
:101748000023FB8200237B750AE07B7D7A681344C3
:101758001B789AB2FB8A1344FB827B7D01337B752D
:101768007A7DFB780A3B9A42EFDBFB78023B7A688A
:1017780013441B789AB2FB8A13449BB203F5807317
:10178800FB82FB8A1B0A9BB2DBB23B74FB8ADBB28F
:101798007B747B8A1B0A9BB2DBB23B737B8ADBB20E
:1017A8007B7307F11001322302220B4803F077FF05
:1017B80007F10C0132230222074803F070FF7B8AED
:1017C8001B021AB2B7F9163013431BB29BB2184664
:1017D8001837BD4680BD00BF380300202DE9F04F03
:1017E800A7B00EAF01F0E0FB00F066F9FFF78EFE40
:1017F80009F064F901F066F801F03AF80023009363
:10180800974B01224FF4FA6196481AF043F995482C
:101818001AF076F9FF2387F85E30FF2387F85F30E8
:10182800002387F85F30904E6D4606F110040FCC08
:101838000FC50FCC0FC50FCC0FC594E8030085E882
:10184800030096E80F00FFF7E3FE034687F85E30D3
:1018580097F85E30002BE6D06B461C46834B197810
:101868000B46013BBB65CBB20022984691464FF030
:1018780000024FF000034FEAC90343EA58734FEAE6
:10188800C802CBB200229A4693464FF000024FF0AE
:1018980000034FEACB0343EA5A734FEACA020B46E6
:1018A8000733DB08DB00ADEB030D0EAB00337B65C4
:1018B8006E4B1B781A466E49786D1AF051FE6D49C9
:1018C800786D1AF060FE0346002B07D0674B1B7833
:1018D8001946786DFFF7F2FE03463B656649786D59
:1018E800FEF746FC0346002B16D15E481AF076F93F
:1018F800624A07F14C031268114619800233120C30
:101908001A7007F14C0132230222574803F0C7FE30
:10191800012387F85F309EE05949786DFEF728FC6F
:101928000346002B12D197F85F30012B40F09380CB
:10193800544A07F1400307CA83E8070007F140014A
:1019480032230B22484803F0AAFE84E00C224E49B9
:10195800786D1AF0F1FD0346002B0DD14B4A07F1C3
:10196800340307CA83E8070007F1340132230B2246
:101978003D4803F094FE6EE00C224549786D1AF05C
:10198800DBFD0346002B0DD1424A07F1280307CAA5
:1019980083E8070007F1280132230B22324803F0BD
:1019A8007EFE58E00C223C49786D1AF0C5FD0346CE
:1019B800002B0DD1394A07F11C0307CA83E8070039
:1019C80007F11C0132230B22274803F068FE42E08E
:1019D8000C223349786D1AF0AFFD0346002B0DD168
:1019E800304A07F1100307CA83E8070007F110011E
:1019F80032230B221C4803F052FE2CE00C222A4909
:101A0800786D1AF099FD0346002B0ED1022387F852
:101A18005F30264A3B1D07CA83E80700391D322379
:101A28000B22114803F03BFE15E00C222049786D8B
:101A38001AF082FD0346002B0DD11E4A3B46126860
:101A4800114619800233120C1A70394632230222C9
:101A5800054803F024FE054B00221A70A546E2E66D
:101A680091160008D402002038030020D00100207D
:101A7800D4010020DCC60108E0C601084CC70108F3
:101A8800E8C6010850C70108ECC601085CC7010890
:101A9800FCC6010868C701080CC7010874C701081B
:101AA8001CC7010880C701082CC701088CC701089A
:101AB8003CC70108D8C6010880B59AB000AF07F145
:101AC80020034822002118461AF02EFD07F10803CA
:101AD80000221A605A609A60DA601A615A6104F04A
:101AE8002BFB0020FFF77EFD1F4B1B6823F4C06310
:101AF8001D4A43F4007313601B4B1B6803F4C06357
:101B08007B607B6824233B628123FB6201233B6467
:101B180000237B64B023BB640023FB6407F120032C
:101B2800184604F0B3FD0346002B01D000F01EF860
:101B38004F23BB600023FB6000233B6100237B61D4
:101B48000023BB610023FB6107F10803022118464B
:101B580005F038F90346002B01D000F007F800BF64
:101B68006837BD4680BD00BF0004005880B400AF90
:101B780072B600BFFEE780B400AF4FF0B043D3F8B1
:101B880090304FF0B04243F40043C2F8903000BFA9
:101B9800BD4680BC704780B485B000AF78604FF018
:101BA800B0439A6D4FF0B0417B6813438B654FF09B
:101BB800B0439A6D7B681340FB60FB6800BF143725
:101BC800BD4680BC7047000080B58CB000AF3B1D9F
:101BD8002C22002118461AF0A7FC224B224A1A6030
:101BE800204B1F229A601F4B00221A611D4B0022B6
:101BF8005A611C4B00229A611A4B4FF08042DA61FD
:101C0800184B00221A62174B4FF480725A6215481B
:101C180005F094FD0346002B01D0FFF7A7FF1148FC
:101C280006F082F80346002B01D0FFF79FFF002340
:101C38003B620023BB600023BB614FF00053FB6194
:101C48004FF48073FB623B1D00221946054805F0DE
:101C5800EFFD0346002B01D0FFF788FF00BF3037A8
:101C6800BD4680BDEC0200200028004080B590B041
:101C780000AF786007F108033822002118461AF0EF
:101C880053FC7B681B68164A934225D14FF4803376
:101C9800BB604FF48073FB6307F10803184605F037
:101CA80033FC0346002B01D0FFF760FFFFF763FF0B
:101CB8004FF48060FFF76FFF00220021022002F03E
:101CC8001AFB022002F031FB002200212A2002F038
:101CD80012FB2A2002F029FB00BF4037BD4680BD19
:101CE8000028004080B400AF00BFBD4680BC7047EC
:101CF80080B400AFFEE780B400AFFEE780B400AF69
:101D0800FEE780B400AFFEE780B400AFFEE780B422
:101D180000AF00BFBD4680BC704780B400AF00BFB5
:101D2800BD4680BC704780B400AF00BFBD4680BCD4
:101D3800704780B400AF00BFBD4680BC704700004C
:101D480080B500AF024806F02BF800BF80BD00BF89
:101D5800EC02002080B500AF024802F07DFD00BF14
:101D680080BD00BF1004002080B500AF024802F01B
:101D780073FD00BF80BD00BF7004002080B500AFB8
:101D8800024803F0D7FD00BF80BD00BF3803002024
:101D980080B500AF024806F063FE00BF80BD00BFFB
:101DA8008003002080B500AF4FF4005003F0FEFB25
:101DB80000BF80BD80B500AF024805F0A1FE00BF9E
:101DC80080BD00BFEC02002080B500AF024806F0DD
:101DD8004FFB00BF80BD00BF2403002080B500AFCB
:101DE800024802F0E9FE00BF80BD00BF10040020D9
:101DF80080B485B000AF78604FF0B0435A6E4FF0B2
:101E0800B0417B6813434B664FF0B0435A6E7B6812
:101E18001340FB60FB6800BF1437BD4680BC7047A9
:101E280080B500AF064B08221A60054806F0A4F8F2
:101E38000346002B01D0FFF799FE00BF80BD00BF0D
:101E48002403002080B582B000AF78600120FFF73E
:101E5800CFFF00220021322002F04DFA322002F09A
:101E680064FA00BF0837BD4680BD80B483B000AFB8
:101E780078604FF0B0439B6823F400424FF0B041C4
:101E88007B6813438B6000BF0C37BD4680BC70472E
:101E980080B400AF024B1B681846BD4680BC704733
:101EA8008075FF1F80B400AF034B1B68DBB2184678
:101EB800BD4680BC704700BF8475FF1F80B400AF6B
:101EC800034B1B681B0A1846BD4680BC704700BF01
:101ED8008475FF1F80B500AF0020FFF7C6FF19F01B
:101EE800C9FD0E4B01221A7000F082F91AF052F85F
:101EF8000B481AF0FDF80B4B4FF400421A61022010
:101F08001AF004F9FFF778F800F0F8F919F0B8F8C2
:101F18000121012019F0F4F800BF80BD3003002032
:101F2800E92000080040005880B582B000AF0023C7
:101F3800FB71FFF76FF80346BB80BB8840F6B832E9
:101F4800934202D9FE23FB7114E0BB88B3F5E16F1D
:101F580002D20023FB710DE0BB88A3F5E1631A46AA
:101F68001346DB019B1A5B001A46054BA3FB0223B1
:101F7800DB09FB71FB7918460837BD4680BD00BFF9
:101F8800B5814E1B80B588B000AF0023FB833B1D95
:101F9800184600F089F9BB681846FEF7C5FD0346E8
:101FA800FB83B7F91E3018462037BD4680BD90B573
:101FB80087B000AF786000237B61FFF769FF786125
:101FC8007B69B3F1FF3F38D101F00EF8044601F008
:101FD8001FF8034623443B6101F010F8F8603B69A1
:101FE8001A0E7B680733D2B21A703B691A0C7B68E9
:101FF8000633D2B21A703B691A0A7B680533D2B22B
:102008001A707B6804333A69D2B21A70FB681A0EE8
:102018007B680333D2B21A70FB681A0C7B680233F0
:10202800D2B21A70FB681A0A7B680133D2B21A70EE
:10203800FB68DAB27B681A7031E07B6807337A692B
:10204800D2B21A707B691A0A7B680633D2B21A7048
:102058007B691A0C7B680533D2B21A707B691A0E39
:102068007B680433D2B21A70FFF71CFF78617B6873
:1020780003337A69D2B21A70FFF720FF78617B6860
:1020880002337A69D2B21A707B691A0A7B68013303
:10209800D2B21A707B691B0CDAB27B681A7000BF67
:1020A8001C37BD4690BD90B583B000AF00237B6060
:1020B800FFF7EEFE78607B68B3F1FF3F0BD100F0CD
:1020C80093FF044600F09AFF03465C4000F0A0FF2F
:1020D800034663407B607B6818460C37BD4690BD5D
:1020E80080B586B002AF7860396007F108031846FA
:1020F80019F010F9BB68B7F90C200092074A1021B3
:10210800786800F01DF87868FEF73CF803469AB244
:102118003B681A8000BF1037BD4680BD98C70108CC
:1021280080B500AF0121022018F0BAFF00BF80BDC2
:1021380080B500AF0021022018F0B2FF00BF80BDBB
:102148000CB480B584B000AF7860396007F11C0327
:10215800FB603968FB68BA69786819F0ADFA00BFA6
:102168001037BD46BDE8804002B0704780B483B0E8
:1021780000AF7860002318460C37BD4680BC704716
:1021880080B582B000AF00237B60064B1B78002B24
:1021980002D000F07FF978607B6818460837BD46A2
:1021A80080BD00BF3003002080B582B000AF7860EA
:1021B8007B68184600F0F5F900BF0837BD4680BDBA
:1021C80080B485B000AF78604FF0B043DA6C4FF060
:1021D800B0417B681343CB644FF0B043DA6C7B6843
:1021E8001340FB60FB6800BF1437BD4680BC7047D6
:1021F80080B586B000AF00F015FF00F019FF00F0C1
:102208001DFF3B1D00221A605A609A60DA601A614D
:102218000123BB600023FB6003233B610120FFF720
:10222800CFFF0220FFF7CCFF0220FFF7C9FF0220F3
:10223800FFF7C6FF01237B603B1D19464FF0904016
:1022480002F06EFF4FF480637B603B1D1946154812
:1022580002F066FF08237B603B1D1946114802F017
:102268005FFF10237B603B1D19460E4802F058FFA4
:10227800002201214FF0904003F080F900224FF432
:102288008061084803F07AF900220821054803F024
:1022980075F900221021034803F070F900BF1837C0
:1022A800BD4680BD0004004880B487B000AF7860A8
:1022B8000D4B7B610D4B3B610D4BFB607B687A6975
:1022C8009A607B683A695A607B68FA681A607B682A
:1022D800084ADA607B68084A1A61002318461C37E6
:1022E800BD4680BC704700BF0000484200009041D6
:1022F80000007A440D093E00AB03050080B483B0AA
:1023080000AF00237B60002318460C37BD4680BC15
:10231800704780B400AF00BFBD4680BC704780B432
:1023280083B000AF78607B689B6818460C37BD4661
:1023380080BC704780B582B000AF0023FB71144B9E
:102348001B7883F00103DBB2002B1BD0114B4FF03D
:10235800FF321A63FFF738FC00F056F84FF480712B
:102368000C4805F071FB0B4B4FF0FF321A6309481C
:1023780005F0A8FC002000F0D3F900F05FF8044B4A
:1023880001221A70FB7918460837BD4680BD00BF88
:1023980031030020EC02002080B58EB000AF7860D9
:1023A800002387F8373007F108032C22002118464C
:1023B8001AF0BAF800F028F8114B1B687A68134431
:1023C8007B6000237B627B68DB43FB600023FB614F
:1023D8004FF000533B624FF480733B6307F10803EF
:1023E80001221946074805F023FA0346002B01D0BD
:1023F800FFF7BCFB97F8373018463837BD4680BD25
:1024080034030020EC02002080B582B000AF002326
:10241800FB71084B0122DA654FF48071064805F01C
:1024280013FB054B4FF0FF321A63FB791846083748
:10243800BD4680BD00280040EC02002080B500AFFA
:1024480000F08EF90346034A1360024B1B681846D6
:1024580080BD00BF3403002080B400AF024B1B686E
:102468001846BD4680BC70473403002080B582B052
:1024780000AF00237B6000F073F90246044B1B6831
:10248800D31A7B607B6818460837BD4680BD00BFFD
:102498003403002080B582B000AF00237B60064B78
:1024A8001B78002B02D000F05BF978607B68184637
:1024B8000837BD4680BD00BF3103002080B483B01B
:1024C80000AF00237B6003237B607B6818460C37D2
:1024D800BD4680BC7047B0B584B000AF78600021BD
:1024E800F960796800200A460346950D94024FF476
:1024F8007A724FF0000320462946FEF75BFB02463E
:102508000B461346FB60FB6818461037BD46B0BD46
:102518002DE9B00F85B000AF78600021F9607968C7
:1025280000200C460546204629464FF0000A4FF089
:10253800000B4FEA411B4BEAD06B4FEA401A50465A
:102548005946021B61EB05034FF000004FF00001F4
:10255800990041EA9271900002460B4612EB04087A
:1025680043EB05094FF000024FF000034FEAC9039F
:1025780043EA58734FEAC80290469946404649468E
:102588004FF000024FF00003820A42EA81528B0AA0
:102598001346FB60FB6818461437BD46BDE8B00F0C
:1025A800704780B584B000AF78607868FFF793FF14
:1025B800F86000F0D5F8B86000E000BF00F0D0F88F
:1025C8000246BB68D31AFA689A42F6D800BF00BF21
:1025D8001037BD4680BD80B582B000AF786019F075
:1025E80097FB00BF0837BD4680BD80B584B000AFFB
:1025F800786000F0A5F8F860FB680133184600F031
:102608008FF800BF1037BD4680BD2DE9B04F8CB0A4
:1026180000AF78610023FB6200F0A2F8B86200F016
:102628008FF878627B6A0022BB60FA604FF0000284
:102638004FF00003B9680B000022B96A00200C466D
:10264800054612EB040843EB0509C7E90689D7E9F3
:1026580006014FF000024FF00003820A42EA81525D
:102668008B0A1346FB62BB6900223B607A603B68B9
:10267800C3F3090A4FF0000BC7E906ABBB6918465C
:10268800FFF746FF03469AB27B691A80FB6A184631
:102698003037BD46BDE8B08F80B582B000AF7860F6
:1026A8007A680021034805F09FFB00BF0837BD4644
:1026B80080BD00BFEC02002080B582B000AF78601A
:1026C8007A680121034805F08FFB00BF0837BD4633
:1026D80080BD00BFEC02002080B582B000AF0023AF
:1026E8007B600021044805F097FB78607B681846FA
:1026F8000837BD4680BD00BFEC02002080B582B01F
:1027080000AF00237B600121044805F085FB786059
:102718007B6818460837BD4680BD00BFEC02002024
:1027280080B582B000AF78607A680221034805F06E
:102738005BFB00BF0837BD4680BD00BFEC02002030
:1027480080B582B000AF0221044805F065FB7860CF
:102758007B6818460837BD4680BD00BFEC020020E4
:1027680080B582B000AF0B48FFF7D9FD786003E071
:102778000848FFF7D4FD78600648FFF7D0FD024609
:102788007B689342F4D17B68DB4318460837BD4623
:1027980080BD00BF0028004080B485B000AF7860DD
:1027A8004FF0B043DA6C4FF0B0417B681343CB6411
:1027B8004FF0B043DA6C7B681340FB60FB6800BFE6
:1027C8001437BD4680BC704780B485B000AF7860D0
:1027D8004FF0B0439A6D4FF0B0417B6813438B655F
:1027E8004FF0B0439A6D7B681340FB60FB6800BFF5
:1027F8001437BD4680BC704780B483B000AF7860A2
:102808004FF0B0439A6D7B68DB434FF0B041134003
:102818008B6500BF0C37BD4680BC704780B485B05F
:1028280000AF78604FF0B0431A6E4FF0B0417B684C
:1028380013430B664FF0B0431A6E7B681340FB607E
:10284800FB6800BF1437BD4680BC704780B483B0B6
:1028580000AF7860054B5A6804497B6813434B60A6
:1028680000BF0C37BD4680BC704700BF0000014068
:1028780080B500AF114B124A1A60104B4FF46142F9
:102888005A600E4B00229A600C4B0022DA600B4B08
:102898000C221A61094B0A221A75084B0022DA82A7
:1028A800064B00229A61054802F0AAFE0346002B57
:1028B80001D0FFF75BF900BF80BD00BF38030020DF
:1028C8000038014080B500AF224B234A1A60214BE3
:1028D8004FF4E1325A601F4B00229A601D4B0022D0
:1028E800DA601C4B00221A611A4B0C225A61194BF0
:1028F80000229A61174B0022DA61164B00221A62F5
:10290800144B00225A62134B00229A62114805F0B8
:102918006EFF0346002B01D0FFF728F900210D4870
:1029280007F0E2FF0346002B01D0FFF71FF9002153
:10293800084808F017F80346002B01D0FFF716F9EE
:10294800044807F099FF0346002B01D0FFF70EF962
:1029580000BF80BD800300200044004080B59AB0CD
:1029680000AF786007F1540300221A605A609A6039
:10297800DA601A6107F1440300221A605A609A600B
:10298800DA6007F10C0338220021184619F0CCFD53
:102998007B681B683C4A934271D10123FB604FF46A
:1029A80040333B6107F10C03184604F0ADFD0346C4
:1029B800002B01D0FFF7DAF84FF48040FFF72EFF25
:1029C8000220FFF7E9FEC0237B650223BB650023D5
:1029D800FB6503233B6607237B6607F1540319460F
:1029E8002A4802F09DFB4FF40030FFF72FFF284BD9
:1029F800284A1A60264B12225A60254B10229A60E8
:102A0800234B0022DA60224B80221A61204B0022DD
:102A18005A611F4B00229A611D4B0022DA611C4B40
:102A280000221A621A4801F09DFC0346002B01D0CF
:102A3800FFF79CF800237B640023BB64002387F81E
:102A48004C30012387F84D3001233B6507F14403DF
:102A580019460F4802F070F80346002B01D0FFF723
:102A680085F87B680A4A1A63094A7B6893620022E0
:102A78000221242001F03FFC242001F056FC00BF75
:102A88006837BD4680BD00BF0038014000040048DB
:102A9800100400200800024080B596B000AF7860AE
:102AA80007F1440300221A605A609A60DA601A61DA
:102AB80007F10C0338220021184619F035FD7B6810
:102AC8001B682F4A934257D10223FB604FF44023DF
:102AD8007B6107F10C03184604F016FD0346002B32
:102AE80001D0FFF743F84FF40030FFF76DFE0120E7
:102AF800FFF752FE0C237B640223BB640023FB64B4
:102B080000233B6507237B6507F1440319464FF013
:102B1800904002F005FB1B4B1B4A1A60194B14220C
:102B28005A60184B10229A60164B0022DA60154B37
:102B380080221A61134B00225A61124B00229A61BB
:102B4800104B0022DA610F4B00221A620D4801F087
:102B580009FC0346002B01D0FFF708F87B68094AF7
:102B68009A67084A7B68936200220021252001F0B9
:102B7800C2FB252001F0D9FB00BF5837BD4680BDF8
:102B880000440040700400201C00024080B582B060
:102B980000AF78607B681B680B4A934210D14FF4F2
:102BA8000030FFF729FE0C214FF0904002F018FC8E
:102BB8007B689B6F184601F07DFC252001F0C3FB64
:102BC80000BF0837BD4680BD0044004080B483B0D4
:102BD80000AF78604FF0B0439A6B4FF0B0417B681C
:102BE80013438B6300BF0C37BD4680BC704780B46D
:102BF80083B000AF78604FF0B0439A6B7B68DB43DB
:102C08004FF0B04113408B6300BF0C37BD4680BC0A
:102C18007047000080B483B000AF7860064BD3F8EB
:102C2800802005497B681343C1F8803000BF0C370A
:102C3800BD4680BC704700BF0008005880B582B010
:102C480000AF7860074A7B681360FEF775FAFFF7F4
:102C580039FE4FF00060FFF7DDFF00231846083704
:102C6800BD4680BDD404002080B500AF4FF40030CD
:102C7800FFF7ACFF4FF40030FFF7B9FF0448FFF748
:102C880085FF0F2001F05FFB0023184680BD00BFC1
:102C98008003002080B582B000AF78600B467B804F
:102CA8007B881A467968044805F048FE00231846D0
:102CB8000837BD4680BD00BF8003002080B584B0C2
:102CC80000AF7860194A7B6813604FF40013BB604B
:102CD80007F1080393E80600154807F040FD00BF18
:102CE800134B1B68DB6903F48033B3F5803FF7D0DF
:102CF80000BF0F4B1B68DB6903F48003B3F5800F3B
:102D0800F7D10B4B1B689A68094B1B6842F4800289
:102D18009A60074807F07EFD01220649044805F03D
:102D2800B7FD002318461037BD4680BDD8040020E3
:102D380080030020D004002080B582B000AF786006
:102D48007B681B68054A934203D1054B1B6800202A
:102D5800984700BF0837BD4680BD00BF004400400B
:102D6800D404002080B582B000AF78607B681B680F
:102D78000D4A934213D10D4B1B68002B0AD07B6878
:102D8800D3F88C30002B05D1084B1B680022012199
:102D98000748984701220649786805F079FD00BF81
:102DA8000837BD4680BD00BF00440040D80400205D
:102DB800D00400200D488546FFF7ABFA0C480D49B2
:102DC8000D4A002302E0D458C4500433C4188C427E
:102DD800F9D30A4A0A4C002301E013600432A242E4
:102DE800FBD319F07DFBFEF7F9FCFEE7000001209C
:102DF800000000205001002050D701085001002099
:102E080008230020FEE780B586B000AF3B1D0022F6
:102E18001A605A609A60DA601A6110237B60012395
:102E2800BB600023FB6003233B613B1D19464FF049
:102E3800904002F075F920237B603B1D19464FF046
:102E4800904002F06DF9002220214FF0904002F0EE
:102E580095FB002210214FF0904002F08FFB0023D9
:102E680018461837BD4680BD80B582B000AF03460E
:102E7800FB71FB79032B3FD801A252F823F000BF66
:102E8800992E0008B32E0008CD2E0008E72E000862
:102E9800002210214FF0904002F070FB0022202108
:102EA8004FF0904002F06AFB27E0012210214FF01A
:102EB800904002F063FB002220214FF0904002F086
:102EC8005DFB1AE0012210214FF0904002F056FB02
:102ED800012220214FF0904002F050FB0DE000222B
:102EE80010214FF0904002F049FB012220214FF0C1
:102EF800904002F043FB00E000BF0023184608376B
:102F0800BD4680BD80B400AF02231846BD4680BCD4
:102F1800704780B400AF01231846BD4680BC704797
:102F280080B400AF01231846BD4680BC704780B40A
:102F380085B000AF0346FB71FB79002B02D10F234C
:102F4800FB6001E01623FB60FB6818461437BD469A
:102F580080BC704780B400AF044B5B68034A23F021
:102F68000103536000BFBD4680BC7047002004E0E9
:102F780080B400AF044B5B68034A23F0020353603C
:102F880000BFBD4680BC7047002004E080B400AF9D
:102F9800044B5B68034A23F00403536000BFBD463B
:102FA80080BC7047002004E080B582B000AF0023E9
:102FB800FB71032001F094F904F0C8F80346094AAC
:102FC80013600F20FFF7D2F80346002B02D001232D
:102FD800FB7101E0FEF786FEFB7918460837BD460F
:102FE80080BD00BF0000002080B400AF024B1B680A
:102FF8001846BD4680BC70479075FF1F80B400AF6F
:10300800024B1B681846BD4680BC70479475FF1F6D
:1030180080B400AF024B1B681846BD4680BC7047A1
:103028009875FF1F80B500AFFFF794FF00BF80BD04
:1030380080B500AFFFF79CFF00BF80BD80B500AF33
:10304800FFF7A4FF00BF80BD80B483B000AF7860F5
:1030580039607B681B6823F0E0723B681A437B6821
:103068001A6000BF0C37BD4680BC704780B483B07F
:1030780000AF78607B681B6803F0E07318460C3774
:10308800BD4680BC704780B485B000AFF860B960B9
:103098007A60FB685A69BB6803F00403072101FAE8
:1030A80003F3DB431A40BB6803F00403796801FAB1
:1030B80003F31A43FB685A6100BF1437BD4680BC4E
:1030C800704780B483B000AF786039607B685A6914
:1030D8003B6803F00403072101FA03F31A403B6835
:1030E80003F0040322FA03F318460C37BD4680BCEC
:1030F800704780B483B000AF78607B68DB6803F406
:103108004063002B01D1012300E0002318460C374F
:10311800BD4680BC704780B485B000AFF860B96028
:103128007A60FB689A6ABB6803F01F030F2101FAF3
:1031380003F3DB431A407B689B0E03F00F01BB6867
:1031480003F01F0301FA03F31A43FB689A6200BFF6
:103158001437BD4680BC704780B483B000AF786038
:1031680039607B689A6A3B68C3F311031A437B682A
:103178009A6200BF0C37BD4680BC704780B483B0EC
:1031880000AF786039607B689A6A3B68C3F31103C3
:10319800DB431A407B689A6200BF0C37BD4680BC8F
:1031A800704780B485B000AFF860B9607A60FB689A
:1031B8005A69BB681B02DB431A40BB6819027B686B
:1031C8000B4023F07C4323F0FF031A43FB685A614A
:1031D80000BF1437BD4680BC704780B483B000AFD1
:1031E80078607B689B6823F0104323F0170343F053
:1031F80080527B689A6000BF0C37BD4680BC704720
:1032080080B483B000AF78607B689B6823F010437C
:1032180023F017037A68936000BF0C37BD4680BC63
:10322800704780B483B000AF78607B689B6803F018
:103238008053B3F1805F01D1012300E000231846D9
:103248000C37BD4680BC704780B483B000AF78604F
:103258007B689B6823F0004323F0170343F00102C7
:103268007B689A6000BF0C37BD4680BC704780B44D
:1032780083B000AF78607B689B6823F0004323F03D
:10328800170343F002027B689A6000BF0C37BD4603
:1032980080BC704780B483B000AF78607B689B685F
:1032A80003F00103012B01D1012300E0002318469C
:1032B8000C37BD4680BC704780B483B000AF7860DF
:1032C8007B689B6803F00203022B01D1012300E015
:1032D800002318460C37BD4680BC704780B483B0C5
:1032E80000AF78607B689B6823F0004323F01703E6
:1032F80043F004027B689A6000BF0C37BD4680BC6F
:10330800704780B483B000AF78607B689B6823F017
:10331800004323F0170343F010027B689A6000BF54
:103328000C37BD4680BC704780B483B000AF78606E
:103338007B689B6803F00403042B01D1012300E0A0
:10334800002318460C37BD4680BC704780B588B04E
:1033580000AF78600023FB770023BB6100237B610B
:103368000023BB607B68002B01D101239EE17B68B1
:103378001B69002B7B689B6D002B09D17868FDF7D2
:1033880013FE7B680022DA657B68002283F85420EC
:103398007B681B681846FFF744FF0346002B15D1CE
:1033A8007B681B681846FFF718FF994B1B689B0939
:1033B800984AA2FB03239B0901335B00BB6002E030
:1033C800BB68013BBB60BB68002BF9D17B681B68FD
:1033D8001846FFF726FF0346002B0DD17B689B6D2F
:1033E80043F010027B689A657B68DB6D43F001024D
:1033F8007B68DA650123FB777B681B681846FFF753
:1034080093FFF8607B689B6D03F01003002B40F07E
:103418004481FB68002B40F040817B689B6D23F45E
:10342800817343F002027B689A657B681B681846C3
:10343800FFF730FF0346002B40F0A7807B689A68AF
:103448007B681B7E9B031A437B685B7EDB031A4306
:103458007B689B7E5B0313437A68126B002A02D059
:103468004FF4805200E000221A437B68DB681A435D
:103478007B681B69002B04DA7B681B6923F0004317
:1034880001E04FF400131A437B6893F82C305B007B
:103498001343BA691343BB617B6893F82030012B4F
:1034A80014D17B689B7E002B04D1BB6943F4803325
:1034B800BB610BE07B689B6D43F020027B689A65DB
:1034C8007B68DB6D43F001027B68DA657B685B6AC9
:1034D800002B09D07B685B6A03F4E0727B689B6A07
:1034E8001343BA691343BB617B681B68DB6823F429
:1034F800FE3323F4FF737A681268B9690B43D3600B
:103508007B685B6803F040427B68DB6C13437A6935
:1035180013437B617B6893F83C30012B11D17B68A6
:103528005B6803F040427B681B6C1A437B685B6CEA
:103538001A437B689B6C1A437B69134343F001036E
:103548007B617B681B681A69334B13407A68126881
:1035580079690B4313617B685B68B3F1404F14D002
:103568007B685B68B3F1804F0FD07B685B68B3F111
:10357800004F0AD0294B1B6823F470127B685B68E4
:1035880003F47013254913430B607B6818687B6844
:103598005B6B1A460021FFF776FD7B6818687B682D
:1035A8009B6B1A461E49FFF76EFD7B681B69002B53
:1035B80008D17B681B689A6A7B681B6862F00F02F7
:1035C8009A6242E07B681B69B3F5001F3DD1002376
:1035D8003B610CE07B681A6E3B699B0022FA03F39F
:1035E80003F00F030F2B06D03B6901333B613B69A6
:1035F800072BEFD900E000BF3B69012B12D17B6894
:103608001B689A6A7B681B6862F00F029A621CE06A
:1036180000000020632D3E0502FCFF1F0827014023
:1036280004FFFF037B681B689B6A7B68DB69013BBF
:103638009B0003F01C036FF00F0202FA03F17B6892
:103648001A6E7B681B680A439A627B681B680021B4
:103658001846FFF736FD02467B685B6B9A420BD132
:103668007B680022DA657B689B6D23F0030343F0D7
:1036780001027B689A6518E07B689B6D23F0120352
:1036880043F010027B689A657B68DB6D43F00102AA
:103698007B68DA650123FB7707E07B689B6D43F065
:1036A80010027B689A650123FB77FB7F1846203759
:1036B800BD4680BD80B584B000AF78607B68002BC4
:1036C80001D101236AE07B689B6D43F002027B68AD
:1036D8009A65786800F0BEFA0346FB73FB7B002B03
:1036E8000FD1786800F082FB0346FB73FB7B002B4D
:1036F80002D17B6801229A657B681B681846FFF730
:103708007FFD7B681B685B687A68126823F46773BF
:1037180023F0030353607B681B6840F29F321A60F2
:103728007B681B68D9687B681A681E4B0B40D3609E
:103738007B681B681A697B681B6822F040421A6123
:103748007B681B685A697B681B6822F007025A610C
:103758007B681B681A6A7B681B6802F0F0221A6291
:103768007B681B689B6A7B681B6800229A620E4B09
:103778001B680D4A23F0FE7313607868FDF728FC78
:103788007B6800221A667B680022DA657B68002263
:103798009A657B68002283F85420FB7B1846103713
:1037A800BD4680BD00023E830827014080B584B035
:1037B80000AF78607B681B681846FFF7B5FD0346C5
:1037C800002B32D17B6893F85430012B01D10223AE
:1037D8002EE07B68012283F85420786800F080FA94
:1037E8000346FB73FB7B002B1AD17B689B6D23F48C
:1037F800706323F0010343F480727B689A657B68E9
:103808000022DA657B681B681C221A607B6800222C
:1038180083F854207B681B681846FFF75FFD06E0B5
:103828007B68002283F8542001E00223FB73FB7BB2
:1038380018461037BD4680BD80B584B000AF7860AB
:103848007B6893F85430012B01D1022322E07B6876
:10385800012283F85420786800F0FCF90346FB73D2
:10386800FB7B002B11D1786800F0C0FA0346FB738C
:10387800FB7B002B09D17B689B6D23F4807323F0BD
:10388800010343F001027B689A657B68002283F894
:103898005420FB7B18461037BD4680BD80B584B0E8
:1038A80000AF786039607B685B69082B02D1082318
:1038B800FB6010E07B681B68DB6803F00103002BEA
:1038C80007D07B689B6D43F020027B689A650123D3
:1038D80077E00423FB60FEF753FCB86021E03B6807
:1038E800B3F1FF3F1DD0FEF74BFC0246BB68D31A6D
:1038F8003A689A4202D33B68002B12D17B681B6856
:103908001A68FB681340002B0BD17B689B6D43F052
:1039180004027B689A657B68002283F8542003239D
:103928004FE07B681B681A68FB681340002BD6D0F1
:103938007B689B6D43F400727B689A657B681B68A3
:103948001846FFF7D6FB0346002B31D07B689B7ED9
:10395800002B2DD17B681B681B6803F00803082B1C
:1039680026D17B681B681846FFF7DEFC0346002B50
:1039780012D17B681B685A687B681B6822F00C02AE
:103988005A607B689B6D23F4807323F0010343F036
:1039980001027B689A650BE07B689B6D43F020020F
:1039A8007B689A657B68DB6D43F001027B68DA65AA
:1039B8007B681B7E002B03D17B681B680C221A6076
:1039C800002318461037BD4680BD80B483B000AFD1
:1039D80078607B681B681B6C18460C37BD4680BC3A
:1039E8007047000080B588B000AF78603960002368
:1039F800FB770023BB607B681B69B3F1004F7B68D2
:103A080093F85430012B01D1022310E17B68012285
:103A180083F854207B681B681846FFF785FC03462B
:103A2800002B40F0F7803B685B68022B00F0B18008
:103A38007B681B69B3F1004F04D07B681B697E4A21
:103A4800934208D17B681A683B681B681946104680
:103A5800FFF782FB41E07B681A6E3B685B6803F006
:103A68001F030F2101FA03F3DB431A403B681B686D
:103A7800C3F31103002B05D13B681B689B0E03F0B1
:103A88001F0311E03B681B683B613B6993FAA3F392
:103A9800FB60FB687B617B69002B01D1202303E07D
:103AA8007B69B3FA83F3DBB23968496801F01F0117
:103AB8008B401A437B681A663B685B689B085A1CF4
:103AC8007B68DB699A4208D87B6818683B68596844
:103AD8003B681B681A46FFF71EFB7B6818683B6843
:103AE80019683B689B681A46FFF75BFB3B681B68D5
:103AF800002B80F297805148FFF7B8FAB8613B680D
:103B08001B684F4A934220D1BB6903F40003002B82
:103B18001BD1BB6943F4000319464848FFF794FAE0
:103B2800484B1B689B09484AA2FB03239B095A1C64
:103B380013465B0013449B00BB6002E0BB68013B7B
:103B4800BB60BB68002BF9D16CE03B681B683F4A3F
:103B580093420CD1BB6903F08073002B07D1BB697A
:103B680043F0807319463548FFF76EFA5AE03B6810
:103B78001B68374A934255D1BB6903F48003002B75
:103B880050D1BB6943F4800319462C48FFF75CFA0F
:103B980048E07B681B69B3F1004F04D07B681B6960
:103BA800254A934207D17B681A683B681B68194607
:103BB8001046FFF7E3FA3B681B68002B32DA1F4810
:103BC800FFF754FAB8613B681B681D4A934207D156
:103BD800BB6923F4000319461848FFF735FA21E0BA
:103BE8003B681B68194A934207D1BB6923F080736D
:103BF80019461248FFF728FA14E03B681B68144A74
:103C080093420FD1BB6923F4800319460B48FFF791
:103C18001BFA07E07B689B6D43F020027B689A657E
:103C28000123FB777B68002283F85420FB7F18462A
:103C38002037BD4680BD00BF040000800827014032
:103C4800001000B000000020632D3E05004000B8C1
:103C5800002000B480B584B000AF78607B681B6832
:103C68001846FFF761FB0346002B33D07B681B68BF
:103C78001846FFF721FB0346002B04D17B681B681D
:103C88001846FFF73EFBFEF77BFAF8601BE0FEF7ED
:103C980077FA0246FB68D31A022B14D97B681B6893
:103CA8009B6803F00403002B0DD07B689B6D43F0E9
:103CB80010027B689A657B68DB6D43F001027B68C4
:103CC800DA65012307E07B681B689B6803F004033F
:103CD800002BDCD1002318461037BD4680BD0000FC
:103CE80080B584B000AF78600023BB607B681B6838
:103CF8001846FFF7CFFA0346002B69D17B681B688B
:103D08009A68364B1340002B0DD07B689B6D43F0AF
:103D180010027B689A657B68DB6D43F001027B6863
:103D2800DA65012355E07B681B681846FFF78CFAB3
:103D38002B48FFF79BF9034603F40003002B0FD031
:103D4800284B1B689B09284AA2FB03239B090133C4
:103D5800BB6002E0BB68013BBB60BB68002BF9D1CC
:103D68007B685B7E012B33D0FEF70AFAF86028E007
:103D78007B681B681846FFF78DFA0346002B04D1B1
:103D88007B681B681846FFF75FFAFEF7F9F90246E9
:103D9800FB68D31A022B14D97B681B681B6803F0D5
:103DA8000103012B0DD07B689B6D43F010027B68EB
:103DB8009A657B68DB6D43F001027B68DA65012355
:103DC80007E07B681B681B6803F00103012BCFD158
:103DD800002318461037BD4680BD00BF170000807D
:103DE8000827014000000020632D3E0580B584B0FF
:103DF80000AF78607B681B681846FFF75DFAF860CB
:103E08007B681B681846FFF745FA0346002B47D026
:103E1800FB68002B44D17B681B689B6803F0050393
:103E2800012B0CD17B681B681846FFF720FA7B68CA
:103E38001B6803221A60FEF7A3F9B86029E07B68C3
:103E48009B6D43F010027B689A657B68DB6D43F0DD
:103E580001027B68DA65012323E0FEF791F9024647
:103E6800BB68D31A022B14D97B681B689B6803F0C4
:103E78000103002B0DD07B689B6D43F010027B681B
:103E88009A657B68DB6D43F001027B68DA65012384
:103E980007E07B681B689B6803F00103002BDCD1FB
:103EA800002318461037BD4680BD80B483B000AFEC
:103EB800786039607B68D3F8B43023F07F023B68C0
:103EC8001A437B68C3F8B42000BF0C37BD4680BCDA
:103ED800704780B483B000AF78607B68D3F8B430A3
:103EE80003F07F0318460C37BD4680BC704780B48A
:103EF80083B000AF78607B689B6823F0004323F0B1
:103F0800170343F001027B689A6000BF0C37BD4677
:103F180080BC704780B483B000AF78607B689B68D2
:103F280023F0004323F0170343F002027B689A60F2
:103F380000BF0C37BD4680BC704780B483B000AF6B
:103F480078607B689B6803F00103012B01D1012392
:103F580000E0002318460C37BD4680BC704780B48B
:103F680083B000AF78607B689B6823F0004323F040
:103F7800170343F000427B689A6000BF0C37BD46C8
:103F880080BC704780B483B000AF78607B689B6862
:103F980003F00043B3F1004F01D1012300E00023F7
:103FA80018460C37BD4680BC704780B588B000AF56
:103FB80078600023BB600023BB617B6893F85430B2
:103FC800012B01D10223B9E07B68012283F8542038
:103FD8007868FFF70BFF0346FB757B681B6818467C
:103FE800FFF7ABFF0346002B40F09D807B689B6D7D
:103FF80023F4817343F002027B689A657B681B682F
:10400800DA6848F2030313403B617B681B68DB688E
:104018007A68126823F4004323F00303D360002373
:10402800FB612EE07B681B681846FFF798FF14E0D9
:10403800BB680133BB60BB68B3F52E3F0DD37B680B
:104048009B6D23F0120343F010027B689A657B682E
:10405800002283F85420012370E07B681B6818460F
:10406800FFF790FF0346002BE2D17B681B681846D8
:10407800FFF72FFF0246BB691344BB61FB6901339D
:10408800FB61FB69072BCDD9BA69FB69B2FBF3F376
:10409800BB617B681B681846FFF729FF7B681B68B4
:1040A800B9691846FFF701FF7B681B681846FFF7D8
:1040B80031FFFEF765F8F8601CE0FEF761F802468C
:1040C800FB68D31A022B15D97B681B681846FFF7C3
:1040D80034FF0346002B0DD07B689B6D43F0100224
:1040E8007B689A657B68DB6D43F001027B68DA6563
:1040F800012323E07B681B681846FFF71EFF034671
:10410800002BDAD17B681B68D9687B681B683A6921
:104118000A43DA607B689B6D23F0030343F00102D6
:104128007B689A6505E07B689B6D43F010027B68AD
:104138009A657B68002283F85420FB7D1846203757
:10414800BD4680BD80B485B000AF78607B6803F061
:104158000703FB600C4BDB68BB60BA684FF6FF03D4
:104168001340BB60FB681A02BB68134343F0BF638C
:1041780043F40033BB60044ABB68D36000BF143704
:10418800BD4680BC704700BF00ED00E080B400AFC2
:10419800044BDB681B0A03F007031846BD4680BCC6
:1041A800704700BF00ED00E080B483B000AF034665
:1041B800FB7197F90730002B0BDBFB7903F01F022B
:1041C800064997F907305B09012000FA02F241F825
:1041D800232000BF0C37BD4680BC704700E100E0DB
:1041E80080B483B000AF0346FB7197F90730002B0A
:1041F80012DBFB7903F01F020A4997F907305B09C4
:10420800012000FA02F2203341F82320BFF34F8F38
:1042180000BFBFF36F8F00BF00BF0C37BD4680BC27
:10422800704700BF00E100E080B483B000AF0346F0
:104238003960FB7197F90730002B0ADB3B68DAB26B
:104248000C4997F907301201D2B20B4483F80023C6
:104258000AE03B68DAB20849FB7903F00F03043B34
:104268001201D2B20B441A7600BF0C37BD4680BC8F
:10427800704700BF00E100E000ED00E080B489B0C5
:1042880000AFF860B9607A60FB6803F00703FB6170
:10429800FB69C3F10703042B28BF0423BB61FB6937
:1042A8000433062B02D9FB69033B00E000237B6142
:1042B8004FF0FF32BB6902FA03F3DA43BB681A40D6
:1042C8007B699A404FF0FF317B6901FA03F3D943C8
:1042D8007B680B40134318462437BD4680BC7047A3
:1042E80080B582B000AF78607868FFF72BFF00BF19
:1042F8000837BD4680BD80B586B000AF0346B960BB
:104308007A60FB73FFF742FF78617A68B968786969
:10431800FFF7B4FF024697F90F3011461846FFF72A
:1043280083FF00BF1837BD4680BD80B582B000AF9F
:104338000346FB7197F907301846FFF735FF00BFB2
:104348000837BD4680BD80B582B000AF0346FB711B
:1043580097F907301846FFF743FF00BF0837BD46F7
:1043680080BD000080B582B000AF78607B68002B0C
:1043780001D101238EE07B681B681A46474B9A429D
:104388000FD87B681B681A46454B1344454AA2FB65
:1043980003231B099A007B685A647B68424A1A64A3
:1043A8000EE07B681B681A46404B13443D4AA2FB4B
:1043B80003231B099A007B685A647B683C4A1A6489
:1043C8007B68022283F825207B681B681B687A6853
:1043D800126823F4FF4323F0700313607B681B68A3
:1043E80019687B689A687B68DB681A437B681B6975
:1043F8001A437B685B691A437B689B691A437B682D
:10440800DB691A437B681B6A1A437B681B680A438B
:104418001A60786800F024FB7B689B68B3F5804FCE
:1044280002D17B6800225A607B685A687B689B6C63
:1044380002F07F021A607B68DB6C7A68126D5A6042
:104448007B685B68002B10D07B685B68042B0CD8FA
:10445800786800F04DFB7B685B6D00221A607B6812
:104468009B6D7A68D26D5A6008E07B6800225A65B5
:104478007B6800229A657B680022DA657B680022E7
:10448800DA637B68012283F825207B68002283F8A1
:104498002420002318460837BD4680BD0704024083
:1044A800F8FFFDBFCDCCCCCC00000240F8FBFDBF2F
:1044B8000004024080B582B000AF78607B68002BB2
:1044C80001D101237BE07B681B681A687B681B6845
:1044D80022F001021A607B681B681A463A4B9A421E
:1044E8000FD87B681B681A46384B1344384AA2FB1E
:1044F80003231B099A007B685A647B68354A1A644F
:104508000EE07B681B681A46334B1344304AA2FB03
:1045180003231B099A007B685A647B682F4A1A6434
:104528007B681B6800221A607B685B6C03F01C02C6
:104538007B681B6C012101FA02F25A60786800F06E
:104548008FFA7B689B6C00221A607B68DB6C7A6848
:10455800126D5A607B685B68002B0FD07B685B68C4
:10456800042B0BD8786800F0C3FA7B685B6D0022D7
:104578001A607B689B6D7A68D26D5A607B680022EE
:104588005A657B6800229A657B680022DA657B6839
:104598000022DA627B6800221A637B6800225A6371
:1045A8007B6800229A637B680022DA637B680022BA
:1045B80083F825207B68002283F8242000231846EE
:1045C8000837BD4680BD00BF07040240F8FFFDBFA5
:1045D800CDCCCCCC00000240F8FBFDBF000402406B
:1045E80080B586B000AFF860B9607A603B600023A0
:1045F800FB75FB6893F82430012B01D1022369E095
:10460800FB68012283F82420FB6893F82530DBB28D
:10461800012B55D1FB68022283F82520FB68002274
:10462800DA63FB681B681A68FB681B6822F00102E2
:104638001A603B687A68B968F86800F0D3F9FB68D3
:104648001B6B002B08D0FB681B681A68FB681B688B
:1046580042F00E021A600FE0FB681B681A68FB68DC
:104668001B6822F004021A60FB681B681A68FB6862
:104678001B6842F00A021A60FB689B6C1B6803F413
:104688008033002B07D0FB689B6C1A68FB689B6C17
:1046980042F480721A60FB685B6D002B07D0FB68E0
:1046A8005B6D1A68FB685B6D42F480721A60FB6888
:1046B8001B681A68FB681B6842F001021A6008E070
:1046C800FB688022DA63FB68002283F82420012338
:1046D800FB75FB7D18461837BD4680BD80B483B096
:1046E80000AF78607B68002B01D101234FE07B6825
:1046F80093F82530DBB2022B08D07B680422DA63FA
:104708007B68002283F82420012340E07B681B6833
:104718001A687B681B6822F00E021A607B689B6C23
:104728001A687B689B6C22F480721A607B681B682D
:104738001A687B681B6822F001021A607B685B6C50
:1047480003F01C027B681B6C012101FA02F25A601B
:104758007B68DB6C7A68126D5A607B685B6D002B36
:104768000CD07B685B6D1A687B685B6D22F4807285
:104778001A607B689B6D7A68D26D5A607B680122EB
:1047880083F825207B68002283F82420002318461C
:104798000C37BD4680BC704780B584B000AF7860E8
:1047A8000023FB737B6893F82530DBB2022B05D01E
:1047B8007B680422DA630123FB7347E07B681B688C
:1047C8001A687B681B6822F00E021A607B681B68F7
:1047D8001A687B681B6822F001021A607B689B6C70
:1047E8001A687B689B6C22F480721A607B685B6C29
:1047F80003F01C027B681B6C012101FA02F25A606B
:104808007B68DB6C7A68126D5A607B685B6D002B85
:104818000CD07B685B6D1A687B685B6D22F48072D4
:104828001A607B689B6D7A68D26D5A607B6801223A
:1048380083F825207B68002283F824207B689B6B03
:10484800002B03D07B689B6B78689847FB7B1846E6
:104858001037BD4680BD000080B584B000AF7860D9
:104868007B681B6C1B68FB607B681B681B68BB60F4
:104878007B685B6C03F01C0304229A40FB681340BE
:10488800002B27D0BB6803F00403002B22D07B68E1
:104898001B681B6803F02003002B07D17B681B688B
:1048A8001A687B681B6822F004021A607B685B6CDC
:1048B80003F01C027B681B6C042101FA02F25A60A7
:1048C8007B681B6B002B00F081807B681B6B786812
:1048D80098477BE07B685B6C03F01C0302229A40DC
:1048E800FB681340002B3DD0BB6803F00203002B8C
:1048F80038D07B681B681B6803F02003002B0BD1A2
:104908007B681B681A687B681B6822F00A021A60B9
:104918007B68012283F825207B681B681A462E4B8A
:104928009A4209D97B685B6C03F01C032B4A02216D
:1049380001FA03F3536008E07B685B6C03F01C0327
:10494800274A022101FA03F353607B68002283F8A7
:1049580024207B68DB6A002B38D07B68DB6A7868A8
:10496800984733E07B685B6C03F01C0308229A408D
:10497800FB681340002B2AD0BB6803F00803002B08
:1049880025D07B681B681A687B681B6822F00E02BA
:104998001A607B685B6C03F01C027B681B6C01214E
:1049A80001FA02F25A607B680122DA637B6801220D
:1049B80083F825207B68002283F824207B685B6BC2
:1049C800002B04D07B685B6B7868984700BF00BFFA
:1049D8001037BD4680BD00BF800002400004024081
:1049E8000000024080B485B000AFF860B9607A601A
:1049F8003B60FB68DB6CFA68126D5A60FB685B6DA4
:104A0800002B04D0FB689B6DFA68D26D5A60FB6876
:104A18005B6C03F01C02FB681B6C012101FA02F2BB
:104A28005A60FB681B683A685A60FB689B68102BE1
:104A380008D1FB681B687A689A60FB681B68BA68CB
:104A4800DA6007E0FB681B68BA689A60FB681B6855
:104A58007A68DA6000BF1437BD4680BC7047000032
:104A680080B485B000AF78607B681B681A461C4B21
:104A78009A4213D87B685B6C9B089B0003F18043C8
:104A880003F502337A6893647B681B68DBB2083BE2
:104A9800144AA2FB03231B09FB6011E07B685B6CD3
:104AA8009B089A00104B13447A6893647B681B68D0
:104AB800DBB2083B0B4AA2FB03231B090733FB604D
:104AC8007B680A4ADA64FB6803F01F0301229A40F4
:104AD8007B681A6500BF1437BD4680BC704700BFAD
:104AE80007040240CDCCCCCC1C0802408008024010
:104AF80080B485B000AF78607B685B6803F07F03A3
:104B0800FB60FA680A4B13449B001A467B685A6597
:104B18007B68084A9A65FB68013B03F0030301229E
:104B28009A407B68DA6500BF1437BD4680BC704781
:104B38003F8200104009024080B483B000AF786023
:104B480039607B6893F82530DBB2012B2BD17B6869
:104B580093F82430012B01D1022328E07B6801223D
:104B680083F824207B689B6C1B6803F07F013B68FB
:104B78001A683B68DB68013BDB041A433B685B68E7
:104B88001A433B681B7A1B041A433B685B7A5B0237
:104B98001A437B689B6C0A431A607B68002283F87F
:104BA8002420002303E07B688022DA63012318466F
:104BB8000C37BD4680BC704780B582B000AF7860C6
:104BC8007B68DB6C1A687B681B6D1340002B1AD05E
:104BD8007B689B6C1A687B689B6C22F480721A60F5
:104BE8007B68DB6C7A68126D5A607B68DB6B43F418
:104BF80000727B68DA637B685B6B002B03D07B6891
:104C08005B6B786898477B685B6D002B22D07B686C
:104C18009B6D1A687B68DB6D1340002B1AD07B688C
:104C28005B6D1A687B685B6D22F480721A607B6822
:104C38009B6D7A68D26D5A607B68DB6B43F4806247
:104C48007B68DA637B685B6B002B03D07B685B6BEC
:104C58007868984700BF0837BD4680BD80B586B0E4
:104C680000AFF860B960C7E900231C4B1B78012B23
:104C780001D102232DE0194B01221A70174B002293
:104C88005A604FF47A7000F069F80346FB75FB7DB3
:104C9800002B1AD1FB68012B05D1D7E90023B8688E
:104CA80000F0BEF804E03B681946B86800F0DEF88A
:104CB8004FF47A7000F052F80346FB75084B5A69B6
:104CC800FB68DB43064913404B61044B00221A7012
:104CD800FB7D18461837BD4680BD00BFDC040020A8
:104CE8000040005880B483B000AF0023FB710B4B29
:104CF8005B69002B0BDA094B094A9A60074B094A92
:104D08009A60064B5B69002B01DA0123FB71FB7982
:104D180018460C37BD4680BC704700BF004000589D
:104D280023016745AB89EFCD80B483B000AF002382
:104D3800FB71094B5B69084A43F000435361064B1A
:104D48005B69002B01DB0123FB71FB7918460C37EB
:104D5800BD4680BC704700BF0040005880B584B095
:104D680000AF7860FDF70CFAF86009E0FDF708FA83
:104D78000246FB68D31A7A689A4201D8032347E0AF
:104D8800254B1B6903F48033B3F5803FEED0224BEB
:104D98001B69BB60BB6803F00103002B02D01E4BEC
:104DA80001221A61BA684CF2FA331340BB60BB683F
:104DB80003F04043002B07D0174B9A69BB6803F0F8
:104DC8004043154913438B61BB6823F04043002BD4
:104DD80004D0114ABB6823F040431361BB68002B21
:104DE8000ED00E4ABB685360012311E0FDF7C8F9E5
:104DF8000246FB68D31A7A689A4201D8032307E06F
:104E0800054B1B6903F48023B3F5802FEED00023F4
:104E180018461037BD4680BD00400058DC0400200D
:104E280080B485B000AFF860C7E900230E4B5B691A
:104E38000D4A43F001035361FB683A681A60BFF3F7
:104E48006F8F00BFD7E900014FF000024FF0000359
:104E58000A000023F968043113460B6000BF1437B9
:104E6800BD4680BC704700BF0040005880B489B080
:104E780000AF786039604023FB777B68BB613B6893
:104E88007B61184B5B69174A43F480235361EFF346
:104E98001083FB60FB683B6172B600BF7B691A68D0
:104EA800BB691A60BB690433BB617B6904337B61EE
:104EB800FB7F013BFB77FB7F002BEFD100BF094B4A
:104EC8001B6903F48033B3F5803FF8D03B69BB60BE
:104ED800BB6883F3108800BF00BF2437BD4680BC81
:104EE800704700BF0040005880B584B000AF7860BC
:104EF8003960284B1B78012B01D1022346E0254B52
:104F080001221A70234B00225A604FF47A70FFF77F
:104F180025FF0346FB73FB7B002B33D17B681B68A3
:104F2800042B08D100F080F84FF47A70FFF716FFD1
:104F38000346FB7324E03B684FF0FF321A607B683E
:104F48005B68BB6012E0B86800F07EF84FF47A70D6
:104F5800FFF704FF0346FB73FB7B002B03D03B6882
:104F6800BA681A600AE0BB680133BB607B685A689C
:104F78007B689B681344BA689A42E4D300F0C0F88F
:104F880000F07AF8034B00221A70FB7B18461037A2
:104F9800BD4680BDDC04002080B584B000AF7860D9
:104FA8001F4B1B78012B01D1022334E01C4B01223B
:104FB8001A701B4B00225A607B681B68184A936062
:104FC8004FF47A70FFF7CAFE0346FB73FB7B002B96
:104FD80003D0134B00221A701CE0124B5B69114A74
:104FE80043F0407353617B681B68042B05D10C4B5D
:104FF80000221A6100F018F80CE07B689B68084AE8
:1050080053617B685B68064A13617B685B68184676
:1050180000F01AF8FB7B18461037BD4680BD00BF6C
:10502800DC0400200040005880B400AF054B5B69E9
:10503800044A43F4803343F00403536100BFBD4680
:1050480080BC70470040005880B483B000AF7860DF
:10505800084B5B6923F47E727B68DB001343054AC7
:1050680043F4803343F00203536100BF0C37BD465D
:1050780080BC70470040005880B400AF1F4B1B68CD
:1050880003F40073012B17D11C4B1B681B4A23F434
:1050980000731360194B1B68184A43F400631360CC
:1050A800164B1B68154A23F400631360134B1B68E7
:1050B800124A43F400731360104B1B6803F48063B7
:1050C800012B17D10D4B1B680C4A23F48063136026
:1050D8000A4B1B68094A43F480531360074B1B684B
:1050E800064A23F480531360044B1B68034A43F4B5
:1050F8008063136000BFBD4680BC70470040005805
:1051080080B400AF054B5B69044A23F47E7323F037
:105118000203536100BFBD4680BC70470040005881
:1051280080B487B000AF7860396000237B6140E1CC
:105138003B681A6801217B6901FA03F31340FB609D
:10514800FB68002B00F032813B685B6803F00303C7
:10515800012B05D03B685B6803F00303022B30D1B9
:105168007B689B683B617B695B00032202FA03F35F
:10517800DB433A6913403B613B68DA687B695B0053
:1051880002FA03F33A6913433B617B683A699A6010
:105198007B685B683B6101227B6902FA03F3DB43AE
:1051A8003A6913403B613B685B681B0903F00102E5
:1051B8007B6902FA03F33A6913433B617B683A69F6
:1051C8005A603B685B6803F00303032B17D07B68C6
:1051D800DB683B617B695B00032202FA03F3DB4374
:1051E8003A6913403B613B689A687B695B0002FA45
:1051F80003F33A6913433B617B683A69DA603B68B9
:105208005B6803F00303022B23D17B69DA087B6810
:10521800083253F822303B617B6903F007039B0097
:105228000F2202FA03F3DB433A6913403B613B6800
:105238001A697B6903F007039B0002FA03F33A69D2
:1052480013433B617B69DA087B680832396943F8A4
:1052580022107B681B683B617B695B00032202FAB2
:1052680003F3DB433A6913403B613B685B6803F037
:1052780003027B695B0002FA03F33A6913433B615B
:105288007B683A691A603B685B6803F44033002B1B
:1052980000F08C804E4A7B699B08023352F8233019
:1052A8003B617B6903F003039B00072202FA03F3C7
:1052B800DB433A6913403B617B68B3F1904F0DD0F3
:1052C8007B68444A934207D07B68434A934201D1A2
:1052D800022304E0072302E0012300E000237A69A7
:1052E80002F00302920093403A6913433B61384944
:1052F8007B699B0802333A6941F82320374B1B68C6
:105308003B61FB68DB433A6913403B613B685B6880
:1053180003F48013002B03D03A69FB6813433B6105
:105328002E4A3B6913602D4B5B683B61FB68DB438E
:105338003A6913403B613B685B6803F40013002B38
:1053480003D03A69FB6813433B61244A3B695360C5
:10535800224BD3F880303B61FB68DB433A6913404A
:105368003B613B685B6803F48033002B03D03A69E8
:10537800FB6813433B61194A3B69C2F88030174BFD
:10538800D3F884303B61FB68DB433A6913403B61E7
:105398003B685B6803F40033002B03D03A69FB6871
:1053A80013433B610D4A3B69C2F884307B69013382
:1053B8007B613B681A687B6922FA03F3002B7FF450
:1053C800B7AE00BF00BF1C37BD4680BC704700BFEA
:1053D8000000014000040048000800480008005888
:1053E80080B487B000AF7860396000237B61AFE09C
:1053F80001227B6902FA03F33A6813403B613B6977
:10540800002B00F0A280594A7B699B08023352F8AE
:105418002330FB607B6903F003039B00072202FA39
:1054280003F3FA681340FB607B68B3F1904F0DD02B
:105438007B684F4A934207D07B684E4A934201D11A
:10544800022304E0072302E0012300E000237A6935
:1054580002F0030292009340FA689A4236D1464B12
:10546800D3F880203B69DB4343491340C1F88030BF
:10547800414BD3F884203B69DB433F491340C1F8D3
:1054880084303D4B1A683B69DB433B4913400B6052
:10549800394B5A683B69DB43374913404B607B699A
:1054A80003F003039B00072202FA03F3FB602F4A71
:1054B8007B699B08023352F82310FB68DA432B48B8
:1054C8007B699B080A40023340F823207B681A68EE
:1054D8007B695B00032101FA03F31A437B681A60B6
:1054E8007B69DA087B68083253F822107B6903F07D
:1054F80007039B000F2202FA03F3DB437A69D20801
:1055080019407B68083243F822107B689A687B69E7
:105518005B00032101FA03F3DB431A407B689A60BE
:105528007B685A6801217B6901FA03F3DB431A405F
:105538007B685A607B68DA687B695B00032101FA43
:1055480003F3DB431A407B68DA607B6901337B61D4
:105558003A687B6922FA03F3002B7FF449AF00BF56
:1055680000BF1C37BD4680BC704700BF000001402B
:1055780000040048000800480008005880B483B0C0
:1055880000AF78600B467B8013467B707B78002BDE
:1055980003D07A887B689A6102E07A887B689A628D
:1055A80000BF0C37BD4680BC7047000080B582B094
:1055B80000AF0346FB80084BDA68FB881340002BDA
:1055C80006D0054AFB88D360FB88184605F086FBA1
:1055D80000BF0837BD4680BD0008005880B483B0BE
:1055E80000AF78604FF0B043D3F888207B681A404A
:1055F8007B681B04134318460C37BD4680BC7047B4
:1056080080B582B000AF78607B68002B01D10123A0
:1056180041E07B68DB6B002B06D17B68002283F8B6
:1056280038207868FDF79AF97B682422DA637B686A
:105638001B681A687B681B6822F001021A60786888
:1056480000F09AFA0346012B01D1012323E07B687D
:105658001B685A687B681B6822F4F0425A607B68B2
:105668001B689A687B681B6822F028029A607B682E
:105678001B689A687B681B6842F002029A607B6824
:105688001B681A687B681B6842F001021A60786818
:1056980000F0CCFB034618460837BD4680BD80B5F0
:1056A8008AB002AFF860B9603B601346FB80FB68C4
:1056B800DB6B202B7AD1BB68002B02D0FB88002B38
:1056C80001D1012373E0FB6893F83830012B01D135
:1056D80002236CE0FB68012283F83820FB68002273
:1056E8005A64FB682122DA63FCF74AFD7861FB689B
:1056F800FA881A84FB68FA885A84FB689B68B3F5B1
:10570800805F08D1FB68DB68002B04D10023FB61B4
:10571800BB68BB6103E0BB68FB610023BB612AE097
:10572800FB685B8C9BB2013B9AB2FB685A843B686E
:1057380000937B6900228021F86800F0BCFB0346D7
:10574800002B01D0032332E0FB69002B0BD1BB698E
:105758001B881A46FB681B68C2F308029A62BB6979
:105768000233BB6107E0FB691A78FB681B689A6221
:10577800FB690133FB61FB685B8C9BB2002BCFD1CB
:105788003B6800937B6900224021F86800F093FB96
:105798000346002B01D0032309E0FB682022DA63CB
:1057A800FB68002283F83820002300E00223184613
:1057B8002037BD4680BD80B58AB002AFF860B960B9
:1057C8003B601346FB80FB681B6C202B40F0AD80D0
:1057D800BB68002B02D0FB88002B01D10123A5E078
:1057E800FB6893F83830012B01D102239EE0FB6857
:1057F800012283F83820FB6800225A64FB682222C1
:105808001A64FCF7BDFC7861FB68FA881A85FB68A6
:10581800FA885A85FB689B68B3F5805F0CD1FB68F2
:10582800DB68002B04D1FB6840F2FF129A8527E061
:10583800FB68FF229A8523E0FB689B68002B0BD14D
:10584800FB68DB68002B03D1FB68FF229A8517E011
:10585800FB687F229A8513E0FB689B68B3F1805F41
:105868000BD1FB68DB68002B03D1FB687F229A858C
:1058780006E0FB683F229A8502E0FB6800229A85D1
:10588800FB689B8D7B82FB689B68B3F5805F08D1C2
:10589800FB68DB68002B04D10023FB61BB68BB619C
:1058A80003E0BB68FB610023BB6130E0FB685B8DF4
:1058B8009BB2013B9AB2FB685A853B6800937B69AF
:1058C80000222021F86800F0F6FA0346002B01D0E8
:1058D80003232BE0FB69002B0CD1FB681B685B6A78
:1058E8009AB27B8A13409AB2BB691A80BB690233A9
:1058F800BB610CE0FB681B685B6ADAB27B8ADBB2CF
:105908001340DAB2FB691A70FB690133FB61FB686B
:105918005B8D9BB2002BC9D1FB6820221A64FB68FF
:10592800002283F83820002300E00223184620379D
:10593800BD4680BD80B588B000AF78607B681B68C5
:10594800DB69FB617B681B681B68BB61FB6903F053
:105958000F037B617B69002B0DD1FB6903F02003EA
:10596800002B08D0BB6903F02003002B03D0786814
:1059780000F07EFBDFE07B681B689B683B617B690E
:10598800002B00F0BB803B6903F00103002B05D11D
:10599800BB6903F49073002B00F0B080FB6903F03F
:1059A8000103002B0ED0BB6903F48073002B09D0D0
:1059B8007B681B6801221A627B685B6C43F00102FA
:1059C8007B685A64FB6903F00203002B0ED03B6925
:1059D80003F00103002B09D07B681B6802221A62BE
:1059E8007B685B6C43F004027B685A64FB6903F0D4
:1059F8000403002B0ED03B6903F00103002B09D0F0
:105A08007B681B6804221A627B685B6C43F00202A5
:105A18007B685A64FB6903F00803002B13D0BB6949
:105A280003F02003002B04D13B6903F00103002B92
:105A380009D07B681B6808221A627B685B6C43F09C
:105A480008027B685A647B685B6C002B72D0FB6928
:105A580003F02003002B07D0BB6903F02003002BC1
:105A680002D0786800F004FB7B685B6CFB607B68A5
:105A78001B689B6803F04003402B04D0FB6803F0CD
:105A88000803002B31D0786800F05DFA7B681B684A
:105A98009B6803F04003402B23D17B681B689A68FE
:105AA8007B681B6822F040029A607B685B6B002B66
:105AB80013D07B685B6B214A9A637B685B6B1846E3
:105AC800FEF76AFE0346002B16D07B685B6B9B6B68
